{
    "contractName": "FundMonitor",
    "abi": [
        {
            "inputs": [],
            "stateMutability": "nonpayable",
            "type": "constructor"
        },
        {
            "anonymous": false,
            "inputs": [
                {
                    "indexed": true,
                    "internalType": "address",
                    "name": "sender",
                    "type": "address"
                },
                {
                    "indexed": true,
                    "internalType": "address",
                    "name": "district",
                    "type": "address"
                },
                {
                    "indexed": true,
                    "internalType": "address",
                    "name": "sector",
                    "type": "address"
                },
                {
                    "indexed": false,
                    "internalType": "uint256",
                    "name": "amount",
                    "type": "uint256"
                }
            ],
            "name": "FundsAllocated",
            "type": "event"
        },
        {
            "anonymous": false,
            "inputs": [
                {
                    "indexed": true,
                    "internalType": "address",
                    "name": "sender",
                    "type": "address"
                },
                {
                    "indexed": true,
                    "internalType": "address",
                    "name": "fromDistrict",
                    "type": "address"
                },
                {
                    "indexed": true,
                    "internalType": "address",
                    "name": "toSector",
                    "type": "address"
                },
                {
                    "indexed": false,
                    "internalType": "uint256",
                    "name": "amount",
                    "type": "uint256"
                }
            ],
            "name": "FundsTransferred",
            "type": "event"
        },
        {
            "inputs": [
                {
                    "internalType": "address",
                    "name": "",
                    "type": "address"
                },
                {
                    "internalType": "address",
                    "name": "",
                    "type": "address"
                }
            ],
            "name": "allocatedFunds",
            "outputs": [
                {
                    "internalType": "uint256",
                    "name": "",
                    "type": "uint256"
                }
            ],
            "stateMutability": "view",
            "type": "function",
            "constant": true
        },
        {
            "inputs": [],
            "name": "centralGov",
            "outputs": [
                {
                    "internalType": "address",
                    "name": "",
                    "type": "address"
                }
            ],
            "stateMutability": "view",
            "type": "function",
            "constant": true
        },
        {
            "inputs": [
                {
                    "internalType": "uint256",
                    "name": "",
                    "type": "uint256"
                }
            ],
            "name": "contractors",
            "outputs": [
                {
                    "internalType": "string",
                    "name": "nameOfContractor",
                    "type": "string"
                },
                {
                    "internalType": "address",
                    "name": "contractorAddress",
                    "type": "address"
                }
            ],
            "stateMutability": "view",
            "type": "function",
            "constant": true
        },
        {
            "inputs": [
                {
                    "internalType": "uint256",
                    "name": "",
                    "type": "uint256"
                }
            ],
            "name": "districts",
            "outputs": [
                {
                    "internalType": "string",
                    "name": "nameOfDistrict",
                    "type": "string"
                },
                {
                    "internalType": "address",
                    "name": "districtAddress",
                    "type": "address"
                }
            ],
            "stateMutability": "view",
            "type": "function",
            "constant": true
        },
        {
            "inputs": [
                {
                    "internalType": "address",
                    "name": "",
                    "type": "address"
                }
            ],
            "name": "hierarchy",
            "outputs": [
                {
                    "internalType": "uint256",
                    "name": "",
                    "type": "uint256"
                }
            ],
            "stateMutability": "view",
            "type": "function",
            "constant": true
        },
        {
            "inputs": [
                {
                    "internalType": "address",
                    "name": "",
                    "type": "address"
                }
            ],
            "name": "isContractor",
            "outputs": [
                {
                    "internalType": "bool",
                    "name": "",
                    "type": "bool"
                }
            ],
            "stateMutability": "view",
            "type": "function",
            "constant": true
        },
        {
            "inputs": [
                {
                    "internalType": "address",
                    "name": "",
                    "type": "address"
                }
            ],
            "name": "isDistrict",
            "outputs": [
                {
                    "internalType": "bool",
                    "name": "",
                    "type": "bool"
                }
            ],
            "stateMutability": "view",
            "type": "function",
            "constant": true
        },
        {
            "inputs": [
                {
                    "internalType": "address",
                    "name": "",
                    "type": "address"
                }
            ],
            "name": "isSector",
            "outputs": [
                {
                    "internalType": "bool",
                    "name": "",
                    "type": "bool"
                }
            ],
            "stateMutability": "view",
            "type": "function",
            "constant": true
        },
        {
            "inputs": [
                {
                    "internalType": "address",
                    "name": "",
                    "type": "address"
                }
            ],
            "name": "isState",
            "outputs": [
                {
                    "internalType": "bool",
                    "name": "",
                    "type": "bool"
                }
            ],
            "stateMutability": "view",
            "type": "function",
            "constant": true
        },
        {
            "inputs": [
                {
                    "internalType": "address",
                    "name": "",
                    "type": "address"
                }
            ],
            "name": "isSupplier",
            "outputs": [
                {
                    "internalType": "bool",
                    "name": "",
                    "type": "bool"
                }
            ],
            "stateMutability": "view",
            "type": "function",
            "constant": true
        },
        {
            "inputs": [],
            "name": "owner",
            "outputs": [
                {
                    "internalType": "address",
                    "name": "",
                    "type": "address"
                }
            ],
            "stateMutability": "view",
            "type": "function",
            "constant": true
        },
        {
            "inputs": [
                {
                    "internalType": "uint256",
                    "name": "",
                    "type": "uint256"
                }
            ],
            "name": "sectors",
            "outputs": [
                {
                    "internalType": "string",
                    "name": "nameOfSectors",
                    "type": "string"
                },
                {
                    "internalType": "address",
                    "name": "sectorAddress",
                    "type": "address"
                }
            ],
            "stateMutability": "view",
            "type": "function",
            "constant": true
        },
        {
            "inputs": [
                {
                    "internalType": "uint256",
                    "name": "",
                    "type": "uint256"
                }
            ],
            "name": "states",
            "outputs": [
                {
                    "internalType": "string",
                    "name": "nameOfState",
                    "type": "string"
                },
                {
                    "internalType": "address",
                    "name": "stateAddress",
                    "type": "address"
                }
            ],
            "stateMutability": "view",
            "type": "function",
            "constant": true
        },
        {
            "inputs": [
                {
                    "internalType": "uint256",
                    "name": "",
                    "type": "uint256"
                }
            ],
            "name": "suppliers",
            "outputs": [
                {
                    "internalType": "string",
                    "name": "nameOfContractor",
                    "type": "string"
                },
                {
                    "internalType": "address",
                    "name": "contractorAddress",
                    "type": "address"
                }
            ],
            "stateMutability": "view",
            "type": "function",
            "constant": true
        },
        {
            "inputs": [
                {
                    "internalType": "address",
                    "name": "",
                    "type": "address"
                },
                {
                    "internalType": "address",
                    "name": "",
                    "type": "address"
                },
                {
                    "internalType": "uint256",
                    "name": "",
                    "type": "uint256"
                }
            ],
            "name": "transferHistory",
            "outputs": [
                {
                    "internalType": "address",
                    "name": "fromDistrict",
                    "type": "address"
                },
                {
                    "internalType": "address",
                    "name": "toSector",
                    "type": "address"
                },
                {
                    "internalType": "uint256",
                    "name": "amount",
                    "type": "uint256"
                }
            ],
            "stateMutability": "view",
            "type": "function",
            "constant": true
        },
        {
            "inputs": [
                {
                    "internalType": "address",
                    "name": "",
                    "type": "address"
                },
                {
                    "internalType": "address",
                    "name": "",
                    "type": "address"
                }
            ],
            "name": "transferredFunds",
            "outputs": [
                {
                    "internalType": "uint256",
                    "name": "",
                    "type": "uint256"
                }
            ],
            "stateMutability": "view",
            "type": "function",
            "constant": true
        },
        {
            "inputs": [
                {
                    "internalType": "address",
                    "name": "organization",
                    "type": "address"
                },
                {
                    "internalType": "uint256",
                    "name": "level",
                    "type": "uint256"
                }
            ],
            "name": "setHierarchy",
            "outputs": [],
            "stateMutability": "nonpayable",
            "type": "function"
        },
        {
            "inputs": [
                {
                    "internalType": "address",
                    "name": "fromAddress",
                    "type": "address"
                },
                {
                    "internalType": "address",
                    "name": "toAddress",
                    "type": "address"
                },
                {
                    "internalType": "uint256",
                    "name": "value",
                    "type": "uint256"
                }
            ],
            "name": "allocateFunds",
            "outputs": [],
            "stateMutability": "nonpayable",
            "type": "function"
        },
        {
            "inputs": [
                {
                    "internalType": "address",
                    "name": "toAddress",
                    "type": "address"
                },
                {
                    "internalType": "uint256",
                    "name": "amount",
                    "type": "uint256"
                }
            ],
            "name": "transferFunds",
            "outputs": [],
            "stateMutability": "payable",
            "type": "function",
            "payable": true
        },
        {
            "inputs": [
                {
                    "internalType": "address",
                    "name": "_centralGov",
                    "type": "address"
                }
            ],
            "name": "setCentralGov",
            "outputs": [],
            "stateMutability": "nonpayable",
            "type": "function"
        },
        {
            "inputs": [
                {
                    "internalType": "address",
                    "name": "_stateAddress",
                    "type": "address"
                },
                {
                    "internalType": "string",
                    "name": "_stateName",
                    "type": "string"
                }
            ],
            "name": "addState",
            "outputs": [],
            "stateMutability": "nonpayable",
            "type": "function"
        },
        {
            "inputs": [
                {
                    "internalType": "address",
                    "name": "_stateAddress",
                    "type": "address"
                }
            ],
            "name": "removeState",
            "outputs": [],
            "stateMutability": "nonpayable",
            "type": "function"
        },
        {
            "inputs": [
                {
                    "internalType": "address",
                    "name": "_districtAddress",
                    "type": "address"
                },
                {
                    "internalType": "string",
                    "name": "_districtName",
                    "type": "string"
                }
            ],
            "name": "addDistrict",
            "outputs": [],
            "stateMutability": "nonpayable",
            "type": "function"
        },
        {
            "inputs": [
                {
                    "internalType": "address",
                    "name": "_districtAddress",
                    "type": "address"
                }
            ],
            "name": "removeDistrict",
            "outputs": [],
            "stateMutability": "nonpayable",
            "type": "function"
        },
        {
            "inputs": [
                {
                    "internalType": "address",
                    "name": "_sectorAddress",
                    "type": "address"
                },
                {
                    "internalType": "string",
                    "name": "_sectorName",
                    "type": "string"
                }
            ],
            "name": "addSector",
            "outputs": [],
            "stateMutability": "nonpayable",
            "type": "function"
        },
        {
            "inputs": [
                {
                    "internalType": "address",
                    "name": "_sectorAddress",
                    "type": "address"
                }
            ],
            "name": "removeSector",
            "outputs": [],
            "stateMutability": "nonpayable",
            "type": "function"
        },
        {
            "inputs": [
                {
                    "internalType": "address",
                    "name": "_contractorAddress",
                    "type": "address"
                },
                {
                    "internalType": "string",
                    "name": "_contractorName",
                    "type": "string"
                }
            ],
            "name": "addContractor",
            "outputs": [],
            "stateMutability": "nonpayable",
            "type": "function"
        },
        {
            "inputs": [
                {
                    "internalType": "address",
                    "name": "_contractorAddress",
                    "type": "address"
                }
            ],
            "name": "removeContractor",
            "outputs": [],
            "stateMutability": "nonpayable",
            "type": "function"
        },
        {
            "inputs": [
                {
                    "internalType": "address",
                    "name": "_contractorAddress",
                    "type": "address"
                },
                {
                    "internalType": "string",
                    "name": "_contractorName",
                    "type": "string"
                }
            ],
            "name": "addSupplier",
            "outputs": [],
            "stateMutability": "nonpayable",
            "type": "function"
        },
        {
            "inputs": [
                {
                    "internalType": "address",
                    "name": "_contractorAddress",
                    "type": "address"
                }
            ],
            "name": "removeSupplier",
            "outputs": [],
            "stateMutability": "nonpayable",
            "type": "function"
        }
    ],
    "bytecode": "0x608060405234801561000f575f80fd5b50335f806101000a81548173ffffffffffffffffffffffffffffffffffffffff021916908373ffffffffffffffffffffffffffffffffffffffff1602179055505f60015f6101000a81548173ffffffffffffffffffffffffffffffffffffffff021916908373ffffffffffffffffffffffffffffffffffffffff1602179055505f60025f3373ffffffffffffffffffffffffffffffffffffffff1673ffffffffffffffffffffffffffffffffffffffff1681526020019081526020015f2081905550613c61806100de5f395ff3fe6080604052600436106101cb575f3560e01c80636f31dc75116100f6578063aed1061b11610094578063cea2312111610063578063cea23121146106cc578063d27a5d2714610709578063e77995e014610731578063fb6d25fe1461076e576101cb565b8063aed1061b14610616578063bd8976c41461063e578063c794716614610666578063c7e293d9146106a4576101cb565b80638b5fded9116100d05780638b5fded91461056c5780638da5cb5b14610594578063990dc9db146105be578063a59003fa146105da576101cb565b80636f31dc75146104b857806372b73b05146104f45780637d5174f014610530576101cb565b806326bed6661161016e578063463365421161013d57806346336542146103dc578063513d14261461041857806361c0ee6d14610440578063695f2b741461047c576101cb565b806326bed66614610310578063340c08771461033a5780633481a95a146103625780633ff364931461039f576101cb565b80630f5f817a116101aa5780630f5f817a1461025c578063103d6275146102845780631c933a3e146102ac57806325c3f413146102d4576101cb565b8062c4ea9f146101cf578063017a9105146101f75780630e44e7b114610234575b5f80fd5b3480156101da575f80fd5b506101f560048036038101906101f09190612bda565b610796565b005b348015610202575f80fd5b5061021d60048036038101906102189190612c38565b6109f7565b60405161022b929190612cfc565b60405180910390f35b34801561023f575f80fd5b5061025a60048036038101906102559190612bda565b610acb565b005b348015610267575f80fd5b50610282600480360381019061027d9190612bda565b610d2c565b005b34801561028f575f80fd5b506102aa60048036038101906102a59190612d2a565b610f8d565b005b3480156102b7575f80fd5b506102d260048036038101906102cd9190612e94565b611052565b005b3480156102df575f80fd5b506102fa60048036038101906102f59190612eee565b6112df565b6040516103079190612f3b565b60405180910390f35b34801561031b575f80fd5b506103246112ff565b6040516103319190612f54565b60405180910390f35b348015610345575f80fd5b50610360600480360381019061035b9190612bda565b611324565b005b34801561036d575f80fd5b5061038860048036038101906103839190612c38565b611437565b604051610396929190612cfc565b60405180910390f35b3480156103aa575f80fd5b506103c560048036038101906103c09190612c38565b61150b565b6040516103d3929190612cfc565b60405180910390f35b3480156103e7575f80fd5b5061040260048036038101906103fd9190612bda565b6115df565b60405161040f9190612f87565b60405180910390f35b348015610423575f80fd5b5061043e60048036038101906104399190612bda565b6115fc565b005b34801561044b575f80fd5b5061046660048036038101906104619190612eee565b61185d565b6040516104739190612f3b565b60405180910390f35b348015610487575f80fd5b506104a2600480360381019061049d9190612bda565b61187d565b6040516104af9190612f3b565b60405180910390f35b3480156104c3575f80fd5b506104de60048036038101906104d99190612bda565b611892565b6040516104eb9190612f87565b60405180910390f35b3480156104ff575f80fd5b5061051a60048036038101906105159190612bda565b6118af565b6040516105279190612f87565b60405180910390f35b34801561053b575f80fd5b5061055660048036038101906105519190612bda565b6118cc565b6040516105639190612f87565b60405180910390f35b348015610577575f80fd5b50610592600480360381019061058d9190612e94565b6118e9565b005b34801561059f575f80fd5b506105a8611b76565b6040516105b59190612f54565b60405180910390f35b6105d860048036038101906105d39190612d2a565b611b99565b005b3480156105e5575f80fd5b5061060060048036038101906105fb9190612bda565b611cf6565b60405161060d9190612f87565b60405180910390f35b348015610621575f80fd5b5061063c60048036038101906106379190612bda565b611d13565b005b348015610649575f80fd5b50610664600480360381019061065f9190612e94565b611f74565b005b348015610671575f80fd5b5061068c60048036038101906106879190612fa0565b612201565b60405161069b93929190612ff0565b60405180910390f35b3480156106af575f80fd5b506106ca60048036038101906106c59190612fa0565b61228a565b005b3480156106d7575f80fd5b506106f260048036038101906106ed9190612c38565b612455565b604051610700929190612cfc565b60405180910390f35b348015610714575f80fd5b5061072f600480360381019061072a9190612e94565b612529565b005b34801561073c575f80fd5b5061075760048036038101906107529190612c38565b6127b6565b604051610765929190612cfc565b60405180910390f35b348015610779575f80fd5b50610794600480360381019061078f9190612e94565b61288a565b005b5f8054906101000a900473ffffffffffffffffffffffffffffffffffffffff1673ffffffffffffffffffffffffffffffffffffffff163373ffffffffffffffffffffffffffffffffffffffff1614610823576040517f08c379a000000000000000000000000000000000000000000000000000000000815260040161081a90613095565b60405180910390fd5b600a5f8273ffffffffffffffffffffffffffffffffffffffff1673ffffffffffffffffffffffffffffffffffffffff1681526020019081526020015f205f9054906101000a900460ff166108ac576040517f08c379a00000000000000000000000000000000000000000000000000000000081526004016108a3906130fd565b60405180910390fd5b5f5b6009805490508110156109f3578173ffffffffffffffffffffffffffffffffffffffff16600982815481106108e6576108e561311b565b5b905f5260205f2090600202016001015f9054906101000a900473ffffffffffffffffffffffffffffffffffffffff1673ffffffffffffffffffffffffffffffffffffffff16036109e057600981815481106109445761094361311b565b5b905f5260205f2090600202015f8082015f61095f9190612b17565b600182015f6101000a81549073ffffffffffffffffffffffffffffffffffffffff021916905550505f600a5f8473ffffffffffffffffffffffffffffffffffffffff1673ffffffffffffffffffffffffffffffffffffffff1681526020019081526020015f205f6101000a81548160ff0219169083151502179055506109f3565b80806109eb90613175565b9150506108ae565b5050565b60078181548110610a06575f80fd5b905f5260205f2090600202015f91509050805f018054610a25906131e9565b80601f0160208091040260200160405190810160405280929190818152602001828054610a51906131e9565b8015610a9c5780601f10610a7357610100808354040283529160200191610a9c565b820191905f5260205f20905b815481529060010190602001808311610a7f57829003601f168201915b505050505090806001015f9054906101000a900473ffffffffffffffffffffffffffffffffffffffff16905082565b5f8054906101000a900473ffffffffffffffffffffffffffffffffffffffff1673ffffffffffffffffffffffffffffffffffffffff163373ffffffffffffffffffffffffffffffffffffffff1614610b58576040517f08c379a0000000000000000000000000000000000000000000000000000000008152600401610b4f90613095565b60405180910390fd5b600e5f8273ffffffffffffffffffffffffffffffffffffffff1673ffffffffffffffffffffffffffffffffffffffff1681526020019081526020015f205f9054906101000a900460ff16610be1576040517f08c379a0000000000000000000000000000000000000000000000000000000008152600401610bd890613263565b60405180910390fd5b5f5b600d80549050811015610d28578173ffffffffffffffffffffffffffffffffffffffff16600d8281548110610c1b57610c1a61311b565b5b905f5260205f2090600202016001015f9054906101000a900473ffffffffffffffffffffffffffffffffffffffff1673ffffffffffffffffffffffffffffffffffffffff1603610d1557600d8181548110610c7957610c7861311b565b5b905f5260205f2090600202015f8082015f610c949190612b17565b600182015f6101000a81549073ffffffffffffffffffffffffffffffffffffffff021916905550505f600e5f8473ffffffffffffffffffffffffffffffffffffffff1673ffffffffffffffffffffffffffffffffffffffff1681526020019081526020015f205f6101000a81548160ff021916908315150217905550610d28565b8080610d2090613175565b915050610be3565b5050565b5f8054906101000a900473ffffffffffffffffffffffffffffffffffffffff1673ffffffffffffffffffffffffffffffffffffffff163373ffffffffffffffffffffffffffffffffffffffff1614610db9576040517f08c379a0000000000000000000000000000000000000000000000000000000008152600401610db090613095565b60405180910390fd5b600e5f8273ffffffffffffffffffffffffffffffffffffffff1673ffffffffffffffffffffffffffffffffffffffff1681526020019081526020015f205f9054906101000a900460ff16610e42576040517f08c379a0000000000000000000000000000000000000000000000000000000008152600401610e3990613263565b60405180910390fd5b5f5b600d80549050811015610f89578173ffffffffffffffffffffffffffffffffffffffff16600d8281548110610e7c57610e7b61311b565b5b905f5260205f2090600202016001015f9054906101000a900473ffffffffffffffffffffffffffffffffffffffff1673ffffffffffffffffffffffffffffffffffffffff1603610f7657600d8181548110610eda57610ed961311b565b5b905f5260205f2090600202015f8082015f610ef59190612b17565b600182015f6101000a81549073ffffffffffffffffffffffffffffffffffffffff021916905550505f600e5f8473ffffffffffffffffffffffffffffffffffffffff1673ffffffffffffffffffffffffffffffffffffffff1681526020019081526020015f205f6101000a81548160ff021916908315150217905550610f89565b8080610f8190613175565b915050610e44565b5050565b60025f3373ffffffffffffffffffffffffffffffffffffffff1673ffffffffffffffffffffffffffffffffffffffff1681526020019081526020015f2054811161100c576040517f08c379a0000000000000000000000000000000000000000000000000000000008152600401611003906132f1565b60405180910390fd5b8060025f8473ffffffffffffffffffffffffffffffffffffffff1673ffffffffffffffffffffffffffffffffffffffff1681526020019081526020015f20819055505050565b5f8054906101000a900473ffffffffffffffffffffffffffffffffffffffff1673ffffffffffffffffffffffffffffffffffffffff163373ffffffffffffffffffffffffffffffffffffffff16146110df576040517f08c379a00000000000000000000000000000000000000000000000000000000081526004016110d690613095565b60405180910390fd5b600e5f8373ffffffffffffffffffffffffffffffffffffffff1673ffffffffffffffffffffffffffffffffffffffff1681526020019081526020015f205f9054906101000a900460ff1615611169576040517f08c379a000000000000000000000000000000000000000000000000000000000815260040161116090613359565b60405180910390fd5b5f60405180604001604052808381526020018473ffffffffffffffffffffffffffffffffffffffff168152509050600d81908060018154018082558091505060019003905f5260205f2090600202015f909190919091505f820151815f0190816111d39190613514565b506020820151816001015f6101000a81548173ffffffffffffffffffffffffffffffffffffffff021916908373ffffffffffffffffffffffffffffffffffffffff16021790555050506001600e5f8573ffffffffffffffffffffffffffffffffffffffff1673ffffffffffffffffffffffffffffffffffffffff1681526020019081526020015f205f6101000a81548160ff0219169083151502179055503073ffffffffffffffffffffffffffffffffffffffff1663103d62758460066040518363ffffffff1660e01b81526004016112ad92919061361c565b5f604051808303815f87803b1580156112c4575f80fd5b505af11580156112d6573d5f803e3d5ffd5b50505050505050565b6003602052815f5260405f20602052805f5260405f205f91509150505481565b60015f9054906101000a900473ffffffffffffffffffffffffffffffffffffffff1681565b5f8054906101000a900473ffffffffffffffffffffffffffffffffffffffff1673ffffffffffffffffffffffffffffffffffffffff163373ffffffffffffffffffffffffffffffffffffffff16146113b1576040517f08c379a00000000000000000000000000000000000000000000000000000000081526004016113a890613095565b60405180910390fd5b8060015f6101000a81548173ffffffffffffffffffffffffffffffffffffffff021916908373ffffffffffffffffffffffffffffffffffffffff160217905550600160025f8373ffffffffffffffffffffffffffffffffffffffff1673ffffffffffffffffffffffffffffffffffffffff1681526020019081526020015f208190555050565b600d8181548110611446575f80fd5b905f5260205f2090600202015f91509050805f018054611465906131e9565b80601f0160208091040260200160405190810160405280929190818152602001828054611491906131e9565b80156114dc5780601f106114b3576101008083540402835291602001916114dc565b820191905f5260205f20905b8154815290600101906020018083116114bf57829003601f168201915b505050505090806001015f9054906101000a900473ffffffffffffffffffffffffffffffffffffffff16905082565b600b818154811061151a575f80fd5b905f5260205f2090600202015f91509050805f018054611539906131e9565b80601f0160208091040260200160405190810160405280929190818152602001828054611565906131e9565b80156115b05780601f10611587576101008083540402835291602001916115b0565b820191905f5260205f20905b81548152906001019060200180831161159357829003601f168201915b505050505090806001015f9054906101000a900473ffffffffffffffffffffffffffffffffffffffff16905082565b6010602052805f5260405f205f915054906101000a900460ff1681565b5f8054906101000a900473ffffffffffffffffffffffffffffffffffffffff1673ffffffffffffffffffffffffffffffffffffffff163373ffffffffffffffffffffffffffffffffffffffff1614611689576040517f08c379a000000000000000000000000000000000000000000000000000000000815260040161168090613095565b60405180910390fd5b600c5f8273ffffffffffffffffffffffffffffffffffffffff1673ffffffffffffffffffffffffffffffffffffffff1681526020019081526020015f205f9054906101000a900460ff16611712576040517f08c379a00000000000000000000000000000000000000000000000000000000081526004016117099061368d565b60405180910390fd5b5f5b600b80549050811015611859578173ffffffffffffffffffffffffffffffffffffffff16600b828154811061174c5761174b61311b565b5b905f5260205f2090600202016001015f9054906101000a900473ffffffffffffffffffffffffffffffffffffffff1673ffffffffffffffffffffffffffffffffffffffff160361184657600b81815481106117aa576117a961311b565b5b905f5260205f2090600202015f8082015f6117c59190612b17565b600182015f6101000a81549073ffffffffffffffffffffffffffffffffffffffff021916905550505f600c5f8473ffffffffffffffffffffffffffffffffffffffff1673ffffffffffffffffffffffffffffffffffffffff1681526020019081526020015f205f6101000a81548160ff021916908315150217905550611859565b808061185190613175565b915050611714565b5050565b6004602052815f5260405f20602052805f5260405f205f91509150505481565b6002602052805f5260405f205f915090505481565b600c602052805f5260405f205f915054906101000a900460ff1681565b600e602052805f5260405f205f915054906101000a900460ff1681565b6008602052805f5260405f205f915054906101000a900460ff1681565b5f8054906101000a900473ffffffffffffffffffffffffffffffffffffffff1673ffffffffffffffffffffffffffffffffffffffff163373ffffffffffffffffffffffffffffffffffffffff1614611976576040517f08c379a000000000000000000000000000000000000000000000000000000000815260040161196d90613095565b60405180910390fd5b600a5f8373ffffffffffffffffffffffffffffffffffffffff1673ffffffffffffffffffffffffffffffffffffffff1681526020019081526020015f205f9054906101000a900460ff1615611a00576040517f08c379a00000000000000000000000000000000000000000000000000000000081526004016119f7906136f5565b60405180910390fd5b5f60405180604001604052808381526020018473ffffffffffffffffffffffffffffffffffffffff168152509050600981908060018154018082558091505060019003905f5260205f2090600202015f909190919091505f820151815f019081611a6a9190613514565b506020820151816001015f6101000a81548173ffffffffffffffffffffffffffffffffffffffff021916908373ffffffffffffffffffffffffffffffffffffffff16021790555050506001600a5f8573ffffffffffffffffffffffffffffffffffffffff1673ffffffffffffffffffffffffffffffffffffffff1681526020019081526020015f205f6101000a81548160ff0219169083151502179055503073ffffffffffffffffffffffffffffffffffffffff1663103d62758460026040518363ffffffff1660e01b8152600401611b4492919061374c565b5f604051808303815f87803b158015611b5b575f80fd5b505af1158015611b6d573d5f803e3d5ffd5b50505050505050565b5f8054906101000a900473ffffffffffffffffffffffffffffffffffffffff1681565b5f73ffffffffffffffffffffffffffffffffffffffff168273ffffffffffffffffffffffffffffffffffffffff1603611c07576040517f08c379a0000000000000000000000000000000000000000000000000000000008152600401611bfe906137bd565b60405180910390fd5b5f8111611c49576040517f08c379a0000000000000000000000000000000000000000000000000000000008152600401611c409061384b565b60405180910390fd5b5f8273ffffffffffffffffffffffffffffffffffffffff1682604051611c6e90613896565b5f6040518083038185875af1925050503d805f8114611ca8576040519150601f19603f3d011682016040523d82523d5f602084013e611cad565b606091505b5050905080611cf1576040517f08c379a0000000000000000000000000000000000000000000000000000000008152600401611ce8906138f4565b60405180910390fd5b505050565b600a602052805f5260405f205f915054906101000a900460ff1681565b5f8054906101000a900473ffffffffffffffffffffffffffffffffffffffff1673ffffffffffffffffffffffffffffffffffffffff163373ffffffffffffffffffffffffffffffffffffffff1614611da0576040517f08c379a0000000000000000000000000000000000000000000000000000000008152600401611d9790613095565b60405180910390fd5b600a5f8273ffffffffffffffffffffffffffffffffffffffff1673ffffffffffffffffffffffffffffffffffffffff1681526020019081526020015f205f9054906101000a900460ff16611e29576040517f08c379a0000000000000000000000000000000000000000000000000000000008152600401611e209061395c565b60405180910390fd5b5f5b600980549050811015611f70578173ffffffffffffffffffffffffffffffffffffffff1660098281548110611e6357611e6261311b565b5b905f5260205f2090600202016001015f9054906101000a900473ffffffffffffffffffffffffffffffffffffffff1673ffffffffffffffffffffffffffffffffffffffff1603611f5d5760098181548110611ec157611ec061311b565b5b905f5260205f2090600202015f8082015f611edc9190612b17565b600182015f6101000a81549073ffffffffffffffffffffffffffffffffffffffff021916905550505f600a5f8473ffffffffffffffffffffffffffffffffffffffff1673ffffffffffffffffffffffffffffffffffffffff1681526020019081526020015f205f6101000a81548160ff021916908315150217905550611f70565b8080611f6890613175565b915050611e2b565b5050565b5f8054906101000a900473ffffffffffffffffffffffffffffffffffffffff1673ffffffffffffffffffffffffffffffffffffffff163373ffffffffffffffffffffffffffffffffffffffff1614612001576040517f08c379a0000000000000000000000000000000000000000000000000000000008152600401611ff890613095565b60405180910390fd5b600e5f8373ffffffffffffffffffffffffffffffffffffffff1673ffffffffffffffffffffffffffffffffffffffff1681526020019081526020015f205f9054906101000a900460ff161561208b576040517f08c379a000000000000000000000000000000000000000000000000000000000815260040161208290613359565b60405180910390fd5b5f60405180604001604052808381526020018473ffffffffffffffffffffffffffffffffffffffff168152509050600d81908060018154018082558091505060019003905f5260205f2090600202015f909190919091505f820151815f0190816120f59190613514565b506020820151816001015f6101000a81548173ffffffffffffffffffffffffffffffffffffffff021916908373ffffffffffffffffffffffffffffffffffffffff16021790555050506001600e5f8573ffffffffffffffffffffffffffffffffffffffff1673ffffffffffffffffffffffffffffffffffffffff1681526020019081526020015f205f6101000a81548160ff0219169083151502179055503073ffffffffffffffffffffffffffffffffffffffff1663103d62758460056040518363ffffffff1660e01b81526004016121cf9291906139b3565b5f604051808303815f87803b1580156121e6575f80fd5b505af11580156121f8573d5f803e3d5ffd5b50505050505050565b6005602052825f5260405f20602052815f5260405f208181548110612224575f80fd5b905f5260205f2090600302015f925092505050805f015f9054906101000a900473ffffffffffffffffffffffffffffffffffffffff1690806001015f9054906101000a900473ffffffffffffffffffffffffffffffffffffffff16908060020154905083565b60025f8373ffffffffffffffffffffffffffffffffffffffff1673ffffffffffffffffffffffffffffffffffffffff1681526020019081526020015f205460025f8573ffffffffffffffffffffffffffffffffffffffff1673ffffffffffffffffffffffffffffffffffffffff1681526020019081526020015f205410612346576040517f08c379a000000000000000000000000000000000000000000000000000000000815260040161233d90613a4a565b60405180910390fd5b8060035f8573ffffffffffffffffffffffffffffffffffffffff1673ffffffffffffffffffffffffffffffffffffffff1681526020019081526020015f205f8473ffffffffffffffffffffffffffffffffffffffff1673ffffffffffffffffffffffffffffffffffffffff1681526020019081526020015f205f8282546123cd9190613a68565b925050819055508173ffffffffffffffffffffffffffffffffffffffff168373ffffffffffffffffffffffffffffffffffffffff163373ffffffffffffffffffffffffffffffffffffffff167f3770108e97bde5ff5b5c39723a6eca55bc7f69ff1c634fd0d2f0392d39b0a8fc846040516124489190612f3b565b60405180910390a4505050565b600f8181548110612464575f80fd5b905f5260205f2090600202015f91509050805f018054612483906131e9565b80601f01602080910402602001604051908101604052809291908181526020018280546124af906131e9565b80156124fa5780601f106124d1576101008083540402835291602001916124fa565b820191905f5260205f20905b8154815290600101906020018083116124dd57829003601f168201915b505050505090806001015f9054906101000a900473ffffffffffffffffffffffffffffffffffffffff16905082565b5f8054906101000a900473ffffffffffffffffffffffffffffffffffffffff1673ffffffffffffffffffffffffffffffffffffffff163373ffffffffffffffffffffffffffffffffffffffff16146125b6576040517f08c379a00000000000000000000000000000000000000000000000000000000081526004016125ad90613095565b60405180910390fd5b600a5f8373ffffffffffffffffffffffffffffffffffffffff1673ffffffffffffffffffffffffffffffffffffffff1681526020019081526020015f205f9054906101000a900460ff1615612640576040517f08c379a000000000000000000000000000000000000000000000000000000000815260040161263790613ae5565b60405180910390fd5b5f60405180604001604052808381526020018473ffffffffffffffffffffffffffffffffffffffff168152509050600981908060018154018082558091505060019003905f5260205f2090600202015f909190919091505f820151815f0190816126aa9190613514565b506020820151816001015f6101000a81548173ffffffffffffffffffffffffffffffffffffffff021916908373ffffffffffffffffffffffffffffffffffffffff16021790555050506001600a5f8573ffffffffffffffffffffffffffffffffffffffff1673ffffffffffffffffffffffffffffffffffffffff1681526020019081526020015f205f6101000a81548160ff0219169083151502179055503073ffffffffffffffffffffffffffffffffffffffff1663103d62758460036040518363ffffffff1660e01b8152600401612784929190613b3c565b5f604051808303815f87803b15801561279b575f80fd5b505af11580156127ad573d5f803e3d5ffd5b50505050505050565b600981815481106127c5575f80fd5b905f5260205f2090600202015f91509050805f0180546127e4906131e9565b80601f0160208091040260200160405190810160405280929190818152602001828054612810906131e9565b801561285b5780601f106128325761010080835404028352916020019161285b565b820191905f5260205f20905b81548152906001019060200180831161283e57829003601f168201915b505050505090806001015f9054906101000a900473ffffffffffffffffffffffffffffffffffffffff16905082565b5f8054906101000a900473ffffffffffffffffffffffffffffffffffffffff1673ffffffffffffffffffffffffffffffffffffffff163373ffffffffffffffffffffffffffffffffffffffff1614612917576040517f08c379a000000000000000000000000000000000000000000000000000000000815260040161290e90613095565b60405180910390fd5b600c5f8373ffffffffffffffffffffffffffffffffffffffff1673ffffffffffffffffffffffffffffffffffffffff1681526020019081526020015f205f9054906101000a900460ff16156129a1576040517f08c379a000000000000000000000000000000000000000000000000000000000815260040161299890613bad565b60405180910390fd5b5f60405180604001604052808381526020018473ffffffffffffffffffffffffffffffffffffffff168152509050600b81908060018154018082558091505060019003905f5260205f2090600202015f909190919091505f820151815f019081612a0b9190613514565b506020820151816001015f6101000a81548173ffffffffffffffffffffffffffffffffffffffff021916908373ffffffffffffffffffffffffffffffffffffffff16021790555050506001600c5f8573ffffffffffffffffffffffffffffffffffffffff1673ffffffffffffffffffffffffffffffffffffffff1681526020019081526020015f205f6101000a81548160ff0219169083151502179055503073ffffffffffffffffffffffffffffffffffffffff1663103d62758460046040518363ffffffff1660e01b8152600401612ae5929190613c04565b5f604051808303815f87803b158015612afc575f80fd5b505af1158015612b0e573d5f803e3d5ffd5b50505050505050565b508054612b23906131e9565b5f825580601f10612b345750612b51565b601f0160209004905f5260205f2090810190612b509190612b54565b5b50565b5b80821115612b6b575f815f905550600101612b55565b5090565b5f604051905090565b5f80fd5b5f80fd5b5f73ffffffffffffffffffffffffffffffffffffffff82169050919050565b5f612ba982612b80565b9050919050565b612bb981612b9f565b8114612bc3575f80fd5b50565b5f81359050612bd481612bb0565b92915050565b5f60208284031215612bef57612bee612b78565b5b5f612bfc84828501612bc6565b91505092915050565b5f819050919050565b612c1781612c05565b8114612c21575f80fd5b50565b5f81359050612c3281612c0e565b92915050565b5f60208284031215612c4d57612c4c612b78565b5b5f612c5a84828501612c24565b91505092915050565b5f81519050919050565b5f82825260208201905092915050565b5f5b83811015612c9a578082015181840152602081019050612c7f565b5f8484015250505050565b5f601f19601f8301169050919050565b5f612cbf82612c63565b612cc98185612c6d565b9350612cd9818560208601612c7d565b612ce281612ca5565b840191505092915050565b612cf681612b9f565b82525050565b5f6040820190508181035f830152612d148185612cb5565b9050612d236020830184612ced565b9392505050565b5f8060408385031215612d4057612d3f612b78565b5b5f612d4d85828601612bc6565b9250506020612d5e85828601612c24565b9150509250929050565b5f80fd5b5f80fd5b7f4e487b71000000000000000000000000000000000000000000000000000000005f52604160045260245ffd5b612da682612ca5565b810181811067ffffffffffffffff82111715612dc557612dc4612d70565b5b80604052505050565b5f612dd7612b6f565b9050612de38282612d9d565b919050565b5f67ffffffffffffffff821115612e0257612e01612d70565b5b612e0b82612ca5565b9050602081019050919050565b828183375f83830152505050565b5f612e38612e3384612de8565b612dce565b905082815260208101848484011115612e5457612e53612d6c565b5b612e5f848285612e18565b509392505050565b5f82601f830112612e7b57612e7a612d68565b5b8135612e8b848260208601612e26565b91505092915050565b5f8060408385031215612eaa57612ea9612b78565b5b5f612eb785828601612bc6565b925050602083013567ffffffffffffffff811115612ed857612ed7612b7c565b5b612ee485828601612e67565b9150509250929050565b5f8060408385031215612f0457612f03612b78565b5b5f612f1185828601612bc6565b9250506020612f2285828601612bc6565b9150509250929050565b612f3581612c05565b82525050565b5f602082019050612f4e5f830184612f2c565b92915050565b5f602082019050612f675f830184612ced565b92915050565b5f8115159050919050565b612f8181612f6d565b82525050565b5f602082019050612f9a5f830184612f78565b92915050565b5f805f60608486031215612fb757612fb6612b78565b5b5f612fc486828701612bc6565b9350506020612fd586828701612bc6565b9250506040612fe686828701612c24565b9150509250925092565b5f6060820190506130035f830186612ced565b6130106020830185612ced565b61301d6040830184612f2c565b949350505050565b7f4f6e6c7920746865206f776e65722063616e2063616c6c20746869732066756e5f8201527f6374696f6e2e0000000000000000000000000000000000000000000000000000602082015250565b5f61307f602683612c6d565b915061308a82613025565b604082019050919050565b5f6020820190508181035f8301526130ac81613073565b9050919050565b7f537461746520646f6573206e6f742065786973740000000000000000000000005f82015250565b5f6130e7601483612c6d565b91506130f2826130b3565b602082019050919050565b5f6020820190508181035f830152613114816130db565b9050919050565b7f4e487b71000000000000000000000000000000000000000000000000000000005f52603260045260245ffd5b7f4e487b71000000000000000000000000000000000000000000000000000000005f52601160045260245ffd5b5f61317f82612c05565b91507fffffffffffffffffffffffffffffffffffffffffffffffffffffffffffffffff82036131b1576131b0613148565b5b600182019050919050565b7f4e487b71000000000000000000000000000000000000000000000000000000005f52602260045260245ffd5b5f600282049050600182168061320057607f821691505b602082108103613213576132126131bc565b5b50919050565b7f436f6e74726163746f7220646f6573206e6f74206578697374732e00000000005f82015250565b5f61324d601b83612c6d565b915061325882613219565b602082019050919050565b5f6020820190508181035f83015261327a81613241565b9050919050565b7f596f752063616e206f6e6c79207365742068696572617263687920666f72206c5f8201527f6f776572206f7267616e697a6174696f6e732e00000000000000000000000000602082015250565b5f6132db603383612c6d565b91506132e682613281565b604082019050919050565b5f6020820190508181035f830152613308816132cf565b9050919050565b7f436f6e74726163746f7220616c7265616479206578697374732e0000000000005f82015250565b5f613343601a83612c6d565b915061334e8261330f565b602082019050919050565b5f6020820190508181035f83015261337081613337565b9050919050565b5f819050815f5260205f209050919050565b5f6020601f8301049050919050565b5f82821b905092915050565b5f600883026133d37fffffffffffffffffffffffffffffffffffffffffffffffffffffffffffffffff82613398565b6133dd8683613398565b95508019841693508086168417925050509392505050565b5f819050919050565b5f61341861341361340e84612c05565b6133f5565b612c05565b9050919050565b5f819050919050565b613431836133fe565b61344561343d8261341f565b8484546133a4565b825550505050565b5f90565b61345961344d565b613464818484613428565b505050565b5b818110156134875761347c5f82613451565b60018101905061346a565b5050565b601f8211156134cc5761349d81613377565b6134a684613389565b810160208510156134b5578190505b6134c96134c185613389565b830182613469565b50505b505050565b5f82821c905092915050565b5f6134ec5f19846008026134d1565b1980831691505092915050565b5f61350483836134dd565b9150826002028217905092915050565b61351d82612c63565b67ffffffffffffffff81111561353657613535612d70565b5b61354082546131e9565b61354b82828561348b565b5f60209050601f83116001811461357c575f841561356a578287015190505b61357485826134f9565b8655506135db565b601f19841661358a86613377565b5f5b828110156135b15784890151825560018201915060208501945060208101905061358c565b868310156135ce57848901516135ca601f8916826134dd565b8355505b6001600288020188555050505b505050505050565b5f819050919050565b5f6136066136016135fc846135e3565b6133f5565b612c05565b9050919050565b613616816135ec565b82525050565b5f60408201905061362f5f830185612ced565b61363c602083018461360d565b9392505050565b7f536563746f7220646f6573206e6f7420657869737400000000000000000000005f82015250565b5f613677601583612c6d565b915061368282613643565b602082019050919050565b5f6020820190508181035f8301526136a48161366b565b9050919050565b7f537461746520616c7265616479206578697374732e00000000000000000000005f82015250565b5f6136df601583612c6d565b91506136ea826136ab565b602082019050919050565b5f6020820190508181035f83015261370c816136d3565b9050919050565b5f819050919050565b5f61373661373161372c84613713565b6133f5565b612c05565b9050919050565b6137468161371c565b82525050565b5f60408201905061375f5f830185612ced565b61376c602083018461373d565b9392505050565b7f496e76616c696420726563697069656e742061646472657373000000000000005f82015250565b5f6137a7601983612c6d565b91506137b282613773565b602082019050919050565b5f6020820190508181035f8301526137d48161379b565b9050919050565b7f416d6f756e742073686f756c642062652067726561746572207468616e207a655f8201527f726f000000000000000000000000000000000000000000000000000000000000602082015250565b5f613835602283612c6d565b9150613840826137db565b604082019050919050565b5f6020820190508181035f83015261386281613829565b9050919050565b5f81905092915050565b50565b5f6138815f83613869565b915061388c82613873565b5f82019050919050565b5f6138a082613876565b9150819050919050565b7f5472616e73666572206661696c656400000000000000000000000000000000005f82015250565b5f6138de600f83612c6d565b91506138e9826138aa565b602082019050919050565b5f6020820190508181035f83015261390b816138d2565b9050919050565b7f446973747269637420646f6573206e6f742065786973740000000000000000005f82015250565b5f613946601783612c6d565b915061395182613912565b602082019050919050565b5f6020820190508181035f8301526139738161393a565b9050919050565b5f819050919050565b5f61399d6139986139938461397a565b6133f5565b612c05565b9050919050565b6139ad81613983565b82525050565b5f6040820190506139c65f830185612ced565b6139d360208301846139a4565b9392505050565b7f596f752063616e206f6e6c7920616c6c6f6361746520666f72206c6f776572205f8201527f6f7267616e697a6174696f6e732e000000000000000000000000000000000000602082015250565b5f613a34602e83612c6d565b9150613a3f826139da565b604082019050919050565b5f6020820190508181035f830152613a6181613a28565b9050919050565b5f613a7282612c05565b9150613a7d83612c05565b9250828201905080821115613a9557613a94613148565b5b92915050565b7f446973747269637420616c7265616479206578697374732e00000000000000005f82015250565b5f613acf601883612c6d565b9150613ada82613a9b565b602082019050919050565b5f6020820190508181035f830152613afc81613ac3565b9050919050565b5f819050919050565b5f613b26613b21613b1c84613b03565b6133f5565b612c05565b9050919050565b613b3681613b0c565b82525050565b5f604082019050613b4f5f830185612ced565b613b5c6020830184613b2d565b9392505050565b7f536563746f7220616c7265616479206578697374732e000000000000000000005f82015250565b5f613b97601683612c6d565b9150613ba282613b63565b602082019050919050565b5f6020820190508181035f830152613bc481613b8b565b9050919050565b5f819050919050565b5f613bee613be9613be484613bcb565b6133f5565b612c05565b9050919050565b613bfe81613bd4565b82525050565b5f604082019050613c175f830185612ced565b613c246020830184613bf5565b939250505056fea26469706673582212203ffb4b49931ea41e29617d92ced94cd6363198bb508c0909ec5ae1a0ddc1185664736f6c63430008140033",
    "immutableReferences": {},
    "source": "// SPDX-License-Identifier: MIT\npragma solidity ^0.8.0;\n\ncontract FundMonitor {\n    // global variable & modifier\n    address public owner;\n    address public centralGov;\n    mapping(address => uint256) public hierarchy; // Maps organization address to hierarchy level\n\n    modifier onlyOwner() {\n        require(msg.sender == owner, \"Only the owner can call this function.\");\n        _;\n    }\n\n    modifier onlyHigherHierarchy() {\n        require(\n            hierarchy[msg.sender] < hierarchy[centralGov],\n            \"Only higher hierarchy organizations can call this function.\"\n        );\n        _;\n    }\n\n    // Fund monitor Code\n    struct Transfer {\n        address fromDistrict;\n        address toSector;\n        uint256 amount;\n    }\n\n    mapping(address => mapping(address => uint256)) public allocatedFunds;\n    mapping(address => mapping(address => uint256)) public transferredFunds;\n    mapping(address => mapping(address => Transfer[])) public transferHistory;\n\n    // mapping(address => mapping(address => bool)) public isDistrictSector; // to check if the sector belongs to that district\n\n    event FundsAllocated(\n        address indexed sender,\n        address indexed district,\n        address indexed sector,\n        uint256 amount\n    );\n    event FundsTransferred(\n        address indexed sender,\n        address indexed fromDistrict,\n        address indexed toSector,\n        uint256 amount\n    );\n\n    constructor() {\n        owner = msg.sender;\n        centralGov = address(0); // Set the central government address initially to address(0)\n        hierarchy[msg.sender] = 0; // Owner (deployer of the contract) is assigned the highest hierarchy (0)\n    }\n\n\n    function setHierarchy(address organization, uint256 level) external {\n        require(level > hierarchy[msg.sender], \"You can only set hierarchy for lower organizations.\");\n        hierarchy[organization] = level;\n    }\n\n    function allocateFunds(address fromAddress, address toAddress, uint256 value)\n        external\n    {\n        require(hierarchy[fromAddress] < hierarchy[toAddress], \"You can only allocate for lower organizations.\");\n        allocatedFunds[fromAddress][toAddress] += value;\n        emit FundsAllocated(msg.sender, fromAddress, toAddress, value);\n\n    }\n        // if (isDistrictSector[fromAddress][toAddress] == false) {\n        //     isDistrictSector[fromAddress][toAddress] = true;\n        // }\n                        // address fromAddress,\n    function transferFunds(address toAddress, uint256 amount) \n        external\n        payable \n    {\n        // address fromAddress = msg.sender;\n        // require(msg.sender == owner, \"Only the organization can initiate the transfer\");\n        require(toAddress != address(0), \"Invalid recipient address\");\n        require(amount > 0, \"Amount should be greater than zero\");\n\n        // Transfer funds from the organization's address to the specified address\n        (bool success, ) = toAddress.call{value: amount}(\"\");\n        require(success, \"Transfer failed\");\n    }\n    // -------------FUND MONITOR ends.-------------\n    //  CENTRAL GOVENRMENT code.\n    struct Central {\n        address centralAddress;\n    }\n    Central central;\n    \n    function setCentralGov(address _centralGov) external onlyOwner {\n        centralGov = _centralGov;\n        hierarchy[_centralGov] = 1; // Central government is assigned hierarchy 1\n    }\n\n    // ----------------CENTRAL GOVERNMENT ENDS.----------------\n    //  STATE code.\n    struct State {\n        string nameOfState;\n        address stateAddress;\n    }\n\n    State[] public states;\n    mapping(address => bool) public isState;\n\n    function addState (address _stateAddress, string memory _stateName)\n        public\n        onlyOwner\n    {\n        require(!isDistrict[_stateAddress], \"State already exists.\");\n        District memory newDistrict = District(_stateName, _stateAddress);\n        districts.push(newDistrict);\n        isDistrict[_stateAddress] = true;\n        this.setHierarchy(_stateAddress, 2);\n    }\n\n    function removeState(address _stateAddress) \n        public\n        onlyOwner \n        \n    {\n        require(isDistrict[_stateAddress], \"State does not exist\");\n\n        for (uint256 i = 0; i < districts.length; i++) {\n            if (districts[i].districtAddress == _stateAddress) {\n                delete districts[i];\n                isDistrict[_stateAddress] = false;\n                break;\n            }\n        }\n    }\n    // ----------------STATE ENDS.----------------\n    //  DISTRICT code.\n    struct District {\n        string nameOfDistrict;\n        address districtAddress;\n    }\n\n    District[] public districts;\n    mapping(address => bool) public isDistrict;\n\n    function addDistrict(address _districtAddress, string memory _districtName)\n        public\n        onlyOwner\n        \n    {\n        require(!isDistrict[_districtAddress], \"District already exists.\");\n        District memory newDistrict = District(_districtName, _districtAddress);\n        districts.push(newDistrict);\n        isDistrict[_districtAddress] = true;\n        this.setHierarchy(_districtAddress, 3);\n    }\n\n    function removeDistrict(address _districtAddress)\n        public\n        onlyOwner\n        \n    {\n        require(isDistrict[_districtAddress], \"District does not exist\");\n\n        for (uint256 i = 0; i < districts.length; i++) {\n            if (districts[i].districtAddress == _districtAddress) {\n                delete districts[i];\n                isDistrict[_districtAddress] = false;\n                break;\n            }\n        }\n    }\n    // ----------------DISTRICT ENDS.----------------\n    // code for SECTORS\n    struct Sectors {\n        string nameOfSectors;\n        address sectorAddress;\n    }\n\n    Sectors[] public sectors;\n    mapping(address => bool) public isSector;\n\n    function addSector(address _sectorAddress, string memory _sectorName)\n        public\n        onlyOwner    \n    {\n        require(!isSector[_sectorAddress], \"Sector already exists.\");\n        Sectors memory newSector = Sectors(_sectorName, _sectorAddress);\n        sectors.push(newSector);\n        isSector[_sectorAddress] = true;\n        this.setHierarchy(_sectorAddress, 4);\n    }\n\n    function removeSector(address _sectorAddress) \n        public \n        onlyOwner\n         \n    {\n        require(isSector[_sectorAddress], \"Sector does not exist\");\n\n        for (uint256 i = 0; i < sectors.length; i++) {\n            if (sectors[i].sectorAddress == _sectorAddress) {\n                delete sectors[i];\n                isSector[_sectorAddress] = false;\n                break;\n            }\n        }\n    }\n\n    // ----------------SECTOR ENDS.----------------\n    // code for CONTRACTORS\n    struct Contractor {\n        string nameOfContractor;\n        address contractorAddress;\n    }\n\n    Contractor[] public contractors;\n    mapping(address => bool) public isContractor;\n\n    function addContractor(address _contractorAddress, string memory _contractorName)\n        public \n        onlyOwner\n    {\n        require(!isContractor[_contractorAddress], \"Contractor already exists.\");\n        Contractor memory newcontractor = Contractor(_contractorName, _contractorAddress);\n        contractors.push(newcontractor);\n        isContractor[_contractorAddress] = true;\n        this.setHierarchy(_contractorAddress, 5);\n    }\n\n    function removeContractor(address _contractorAddress) \n        public \n        onlyOwner\n    {\n        require(isContractor[_contractorAddress], \"Contractor does not exists.\");\n\n        for (uint256 i = 0; i < contractors.length; i++) {\n            if (contractors[i].contractorAddress == _contractorAddress) {\n                delete contractors[i];\n                isContractor[_contractorAddress] = false;\n                break;\n            }\n        }\n    }\n    // ----------------COTRACTOR ENDS.----------------\n    // code for SUPPLIERS\n    struct Supplier {\n        string nameOfContractor;\n        address contractorAddress;\n    }\n\n    Supplier[] public suppliers;\n    mapping(address => bool) public isSupplier;\n\n    function addSupplier(address _contractorAddress, string memory _contractorName) \n        public \n        onlyOwner\n    {\n        require(!isContractor[_contractorAddress], \"Contractor already exists.\");\n        Contractor memory newcontractor = Contractor(_contractorName, _contractorAddress);\n        contractors.push(newcontractor);\n        isContractor[_contractorAddress] = true;\n        this.setHierarchy(_contractorAddress, 6);\n    }\n\n    function removeSupplier(address _contractorAddress) \n        public \n        onlyOwner  \n    {\n        require(isContractor[_contractorAddress], \"Contractor does not exists.\");\n\n        for (uint256 i = 0; i < contractors.length; i++) {\n            if (contractors[i].contractorAddress == _contractorAddress) {\n                delete contractors[i];\n                isContractor[_contractorAddress] = false;\n                break;\n            }\n        }\n    }\n    // ----------------SUPPLIER ENDS.----------------\n}\n",
    "sourcePath": "/home/atharva/Work/Code/Web3/TaxRevenueTransparency/contracts/FundMonitor.sol",
    "compiler": {
        "name": "solc",
        "version": "0.8.20+commit.a1b79de6.Emscripten.clang"
    },
    "schemaVersion": "3.4.14",
    "updatedAt": "2023-07-22T10:08:37.175Z",
    "networkType": "ethereum",
    "devdoc": {
        "kind": "dev",
        "methods": {},
        "version": 1
    },
    "userdoc": {
        "kind": "user",
        "methods": {},
        "version": 1
    }
}