{
  "contractName": "CentralGovernment",
  "abi": [
    {
      "inputs": [],
      "stateMutability": "nonpayable",
      "type": "constructor"
    },
    {
      "inputs": [
        {
          "internalType": "address",
          "name": "",
          "type": "address"
        }
      ],
      "name": "balances",
      "outputs": [
        {
          "internalType": "uint256",
          "name": "",
          "type": "uint256"
        }
      ],
      "stateMutability": "view",
      "type": "function"
    },
    {
      "inputs": [],
      "name": "owner",
      "outputs": [
        {
          "internalType": "address",
          "name": "",
          "type": "address"
        }
      ],
      "stateMutability": "view",
      "type": "function"
    },
    {
      "inputs": [],
      "name": "totalFunds",
      "outputs": [
        {
          "internalType": "uint256",
          "name": "",
          "type": "uint256"
        }
      ],
      "stateMutability": "view",
      "type": "function"
    },
    {
      "inputs": [],
      "name": "depositFunds",
      "outputs": [],
      "stateMutability": "payable",
      "type": "function"
    },
    {
      "inputs": [
        {
          "internalType": "uint256",
          "name": "amount",
          "type": "uint256"
        }
      ],
      "name": "withdrawFunds",
      "outputs": [],
      "stateMutability": "nonpayable",
      "type": "function"
    },
    {
      "inputs": [
        {
          "internalType": "address",
          "name": "account",
          "type": "address"
        }
      ],
      "name": "getBalance",
      "outputs": [
        {
          "internalType": "uint256",
          "name": "",
          "type": "uint256"
        }
      ],
      "stateMutability": "view",
      "type": "function"
    },
    {
      "inputs": [],
      "name": "getTotalFunds",
      "outputs": [
        {
          "internalType": "uint256",
          "name": "",
          "type": "uint256"
        }
      ],
      "stateMutability": "view",
      "type": "function"
    }
  ],
  "bytecode": "0x608060405234801561000f575f80fd5b50335f806101000a81548173ffffffffffffffffffffffffffffffffffffffff021916908373ffffffffffffffffffffffffffffffffffffffff16021790555061063f8061005c5f395ff3fe60806040526004361061006f575f3560e01c8063968ed6001161004d578063968ed60014610101578063e2c41dbc1461012b578063eb8bbd2814610135578063f8b2cb4f1461015f5761006f565b8063155dd5ee1461007357806327e235e31461009b5780638da5cb5b146100d7575b5f80fd5b34801561007e575f80fd5b50610099600480360381019061009491906103fe565b61019b565b005b3480156100a6575f80fd5b506100c160048036038101906100bc9190610483565b6102cd565b6040516100ce91906104bd565b60405180910390f35b3480156100e2575f80fd5b506100eb6102e2565b6040516100f891906104e5565b60405180910390f35b34801561010c575f80fd5b50610115610305565b60405161012291906104bd565b60405180910390f35b61013361030b565b005b348015610140575f80fd5b50610149610378565b60405161015691906104bd565b60405180910390f35b34801561016a575f80fd5b5061018560048036038101906101809190610483565b610381565b60405161019291906104bd565b60405180910390f35b8060025f3373ffffffffffffffffffffffffffffffffffffffff1673ffffffffffffffffffffffffffffffffffffffff1681526020019081526020015f2054101561021b576040517f08c379a000000000000000000000000000000000000000000000000000000000815260040161021290610558565b60405180910390fd5b8060025f3373ffffffffffffffffffffffffffffffffffffffff1673ffffffffffffffffffffffffffffffffffffffff1681526020019081526020015f205f82825461026791906105a3565b925050819055508060015f82825461027f91906105a3565b925050819055503373ffffffffffffffffffffffffffffffffffffffff166108fc8290811502906040515f60405180830381858888f193505050501580156102c9573d5f803e3d5ffd5b5050565b6002602052805f5260405f205f915090505481565b5f8054906101000a900473ffffffffffffffffffffffffffffffffffffffff1681565b60015481565b3460025f3373ffffffffffffffffffffffffffffffffffffffff1673ffffffffffffffffffffffffffffffffffffffff1681526020019081526020015f205f82825461035791906105d6565b925050819055503460015f82825461036f91906105d6565b92505081905550565b5f600154905090565b5f60025f8373ffffffffffffffffffffffffffffffffffffffff1673ffffffffffffffffffffffffffffffffffffffff1681526020019081526020015f20549050919050565b5f80fd5b5f819050919050565b6103dd816103cb565b81146103e7575f80fd5b50565b5f813590506103f8816103d4565b92915050565b5f60208284031215610413576104126103c7565b5b5f610420848285016103ea565b91505092915050565b5f73ffffffffffffffffffffffffffffffffffffffff82169050919050565b5f61045282610429565b9050919050565b61046281610448565b811461046c575f80fd5b50565b5f8135905061047d81610459565b92915050565b5f60208284031215610498576104976103c7565b5b5f6104a58482850161046f565b91505092915050565b6104b7816103cb565b82525050565b5f6020820190506104d05f8301846104ae565b92915050565b6104df81610448565b82525050565b5f6020820190506104f85f8301846104d6565b92915050565b5f82825260208201905092915050565b7f496e73756666696369656e742062616c616e63652e00000000000000000000005f82015250565b5f6105426015836104fe565b915061054d8261050e565b602082019050919050565b5f6020820190508181035f83015261056f81610536565b9050919050565b7f4e487b71000000000000000000000000000000000000000000000000000000005f52601160045260245ffd5b5f6105ad826103cb565b91506105b8836103cb565b92508282039050818111156105d0576105cf610576565b5b92915050565b5f6105e0826103cb565b91506105eb836103cb565b925082820190508082111561060357610602610576565b5b9291505056fea26469706673582212206c0f00886d4d1fe08c7026fbab506e21c093061f790c2434955b2974bbf9981464736f6c63430008140033",
  "immutableReferences": {},
  "source": "// SPDX-License-Identifier: MIT\npragma solidity ^0.8.0;\n\ncontract CentralGovernment {\n    address public owner;\n    uint256 public totalFunds;\n    mapping(address => uint256) public balances;\n\n    modifier onlyOwner() {\n        require(msg.sender == owner, \"Only the owner can call this function.\");\n        _;\n    }\n\n    constructor() {\n        owner = msg.sender;\n    }\n\n    function depositFunds() public payable {\n        balances[msg.sender] += msg.value;\n        totalFunds += msg.value;\n    }\n\n    function withdrawFunds(uint256 amount) public {\n        require(balances[msg.sender] >= amount, \"Insufficient balance.\");\n\n        balances[msg.sender] -= amount;\n        totalFunds -= amount;\n        payable(msg.sender).transfer(amount);\n    }\n\n    function getBalance(address account) public view returns (uint256) {\n        return balances[account];\n    }\n\n    function getTotalFunds() public view returns (uint256) {\n        return totalFunds;\n    }\n}\n",
  "sourcePath": "/home/fatguy/Desktop/codes/web3/TaxRevenueTransparency/contracts/centralGov.sol",
  "compiler": {
    "name": "solc",
    "version": "0.8.20+commit.a1b79de6.Emscripten.clang"
  },
  "schemaVersion": "3.4.14",
  "updatedAt": "2023-07-17T14:26:44.681Z",
  "devdoc": {
    "kind": "dev",
    "methods": {},
    "version": 1
  },
  "userdoc": {
    "kind": "user",
    "methods": {},
    "version": 1
  }
}