{
  "contractName": "FundMonitor",
  "abi": [
    {
      "inputs": [],
      "stateMutability": "nonpayable",
      "type": "constructor"
    },
    {
      "anonymous": false,
      "inputs": [
        {
          "indexed": true,
          "internalType": "address",
          "name": "sender",
          "type": "address"
        },
        {
          "indexed": true,
          "internalType": "address",
          "name": "district",
          "type": "address"
        },
        {
          "indexed": true,
          "internalType": "address",
          "name": "sector",
          "type": "address"
        },
        {
          "indexed": false,
          "internalType": "uint256",
          "name": "amount",
          "type": "uint256"
        }
      ],
      "name": "FundsAllocated",
      "type": "event"
    },
    {
      "anonymous": false,
      "inputs": [
        {
          "indexed": true,
          "internalType": "address",
          "name": "sender",
          "type": "address"
        },
        {
          "indexed": true,
          "internalType": "address",
          "name": "fromDistrict",
          "type": "address"
        },
        {
          "indexed": true,
          "internalType": "address",
          "name": "toSector",
          "type": "address"
        },
        {
          "indexed": false,
          "internalType": "uint256",
          "name": "amount",
          "type": "uint256"
        }
      ],
      "name": "FundsTransferred",
      "type": "event"
    },
    {
      "inputs": [
        {
          "internalType": "address",
          "name": "",
          "type": "address"
        },
        {
          "internalType": "address",
          "name": "",
          "type": "address"
        }
      ],
      "name": "allocatedFunds",
      "outputs": [
        {
          "internalType": "uint256",
          "name": "",
          "type": "uint256"
        }
      ],
      "stateMutability": "view",
      "type": "function",
      "constant": true
    },
    {
      "inputs": [],
      "name": "centralGov",
      "outputs": [
        {
          "internalType": "address",
          "name": "",
          "type": "address"
        }
      ],
      "stateMutability": "view",
      "type": "function",
      "constant": true
    },
    {
      "inputs": [
        {
          "internalType": "uint256",
          "name": "",
          "type": "uint256"
        }
      ],
      "name": "contractors",
      "outputs": [
        {
          "internalType": "string",
          "name": "nameOfContractor",
          "type": "string"
        },
        {
          "internalType": "address",
          "name": "contractorAddress",
          "type": "address"
        }
      ],
      "stateMutability": "view",
      "type": "function",
      "constant": true
    },
    {
      "inputs": [
        {
          "internalType": "uint256",
          "name": "",
          "type": "uint256"
        }
      ],
      "name": "districts",
      "outputs": [
        {
          "internalType": "string",
          "name": "nameOfDistrict",
          "type": "string"
        },
        {
          "internalType": "address",
          "name": "districtAddress",
          "type": "address"
        }
      ],
      "stateMutability": "view",
      "type": "function",
      "constant": true
    },
    {
      "inputs": [
        {
          "internalType": "address",
          "name": "",
          "type": "address"
        }
      ],
      "name": "hierarchy",
      "outputs": [
        {
          "internalType": "uint256",
          "name": "",
          "type": "uint256"
        }
      ],
      "stateMutability": "view",
      "type": "function",
      "constant": true
    },
    {
      "inputs": [
        {
          "internalType": "address",
          "name": "",
          "type": "address"
        }
      ],
      "name": "isContractor",
      "outputs": [
        {
          "internalType": "bool",
          "name": "",
          "type": "bool"
        }
      ],
      "stateMutability": "view",
      "type": "function",
      "constant": true
    },
    {
      "inputs": [
        {
          "internalType": "address",
          "name": "",
          "type": "address"
        }
      ],
      "name": "isDistrict",
      "outputs": [
        {
          "internalType": "bool",
          "name": "",
          "type": "bool"
        }
      ],
      "stateMutability": "view",
      "type": "function",
      "constant": true
    },
    {
      "inputs": [
        {
          "internalType": "address",
          "name": "",
          "type": "address"
        }
      ],
      "name": "isSector",
      "outputs": [
        {
          "internalType": "bool",
          "name": "",
          "type": "bool"
        }
      ],
      "stateMutability": "view",
      "type": "function",
      "constant": true
    },
    {
      "inputs": [
        {
          "internalType": "address",
          "name": "",
          "type": "address"
        }
      ],
      "name": "isState",
      "outputs": [
        {
          "internalType": "bool",
          "name": "",
          "type": "bool"
        }
      ],
      "stateMutability": "view",
      "type": "function",
      "constant": true
    },
    {
      "inputs": [
        {
          "internalType": "address",
          "name": "",
          "type": "address"
        }
      ],
      "name": "isSupplier",
      "outputs": [
        {
          "internalType": "bool",
          "name": "",
          "type": "bool"
        }
      ],
      "stateMutability": "view",
      "type": "function",
      "constant": true
    },
    {
      "inputs": [],
      "name": "owner",
      "outputs": [
        {
          "internalType": "address",
          "name": "",
          "type": "address"
        }
      ],
      "stateMutability": "view",
      "type": "function",
      "constant": true
    },
    {
      "inputs": [
        {
          "internalType": "uint256",
          "name": "",
          "type": "uint256"
        }
      ],
      "name": "sectors",
      "outputs": [
        {
          "internalType": "string",
          "name": "nameOfSectors",
          "type": "string"
        },
        {
          "internalType": "address",
          "name": "sectorAddress",
          "type": "address"
        }
      ],
      "stateMutability": "view",
      "type": "function",
      "constant": true
    },
    {
      "inputs": [
        {
          "internalType": "uint256",
          "name": "",
          "type": "uint256"
        }
      ],
      "name": "states",
      "outputs": [
        {
          "internalType": "string",
          "name": "nameOfState",
          "type": "string"
        },
        {
          "internalType": "address",
          "name": "stateAddress",
          "type": "address"
        }
      ],
      "stateMutability": "view",
      "type": "function",
      "constant": true
    },
    {
      "inputs": [
        {
          "internalType": "uint256",
          "name": "",
          "type": "uint256"
        }
      ],
      "name": "suppliers",
      "outputs": [
        {
          "internalType": "string",
          "name": "nameOfContractor",
          "type": "string"
        },
        {
          "internalType": "address",
          "name": "contractorAddress",
          "type": "address"
        }
      ],
      "stateMutability": "view",
      "type": "function",
      "constant": true
    },
    {
      "inputs": [
        {
          "internalType": "address",
          "name": "",
          "type": "address"
        },
        {
          "internalType": "address",
          "name": "",
          "type": "address"
        },
        {
          "internalType": "uint256",
          "name": "",
          "type": "uint256"
        }
      ],
      "name": "transferHistory",
      "outputs": [
        {
          "internalType": "address",
          "name": "fromDistrict",
          "type": "address"
        },
        {
          "internalType": "address",
          "name": "toSector",
          "type": "address"
        },
        {
          "internalType": "uint256",
          "name": "amount",
          "type": "uint256"
        }
      ],
      "stateMutability": "view",
      "type": "function",
      "constant": true
    },
    {
      "inputs": [
        {
          "internalType": "address",
          "name": "",
          "type": "address"
        },
        {
          "internalType": "address",
          "name": "",
          "type": "address"
        }
      ],
      "name": "transferredFunds",
      "outputs": [
        {
          "internalType": "uint256",
          "name": "",
          "type": "uint256"
        }
      ],
      "stateMutability": "view",
      "type": "function",
      "constant": true
    },
    {
      "inputs": [
        {
          "internalType": "address",
          "name": "organization",
          "type": "address"
        },
        {
          "internalType": "uint256",
          "name": "level",
          "type": "uint256"
        }
      ],
      "name": "setHierarchy",
      "outputs": [],
      "stateMutability": "nonpayable",
      "type": "function"
    },
    {
      "inputs": [
        {
          "internalType": "address",
          "name": "fromAddress",
          "type": "address"
        },
        {
          "internalType": "address",
          "name": "toAddress",
          "type": "address"
        },
        {
          "internalType": "uint256",
          "name": "value",
          "type": "uint256"
        }
      ],
      "name": "allocateFunds",
      "outputs": [],
      "stateMutability": "nonpayable",
      "type": "function"
    },
    {
      "inputs": [
        {
          "internalType": "address payable",
          "name": "toAddress",
          "type": "address"
        },
        {
          "internalType": "uint256",
          "name": "amount",
          "type": "uint256"
        }
      ],
      "name": "transferFunds",
      "outputs": [],
      "stateMutability": "payable",
      "type": "function",
      "payable": true
    },
    {
      "inputs": [
        {
          "internalType": "address",
          "name": "_centralGov",
          "type": "address"
        }
      ],
      "name": "setCentralGov",
      "outputs": [],
      "stateMutability": "nonpayable",
      "type": "function"
    },
    {
      "inputs": [
        {
          "internalType": "address",
          "name": "_stateAddress",
          "type": "address"
        },
        {
          "internalType": "string",
          "name": "_stateName",
          "type": "string"
        }
      ],
      "name": "addState",
      "outputs": [],
      "stateMutability": "nonpayable",
      "type": "function"
    },
    {
      "inputs": [
        {
          "internalType": "address",
          "name": "_stateAddress",
          "type": "address"
        }
      ],
      "name": "removeState",
      "outputs": [],
      "stateMutability": "nonpayable",
      "type": "function"
    },
    {
      "inputs": [
        {
          "internalType": "address",
          "name": "_districtAddress",
          "type": "address"
        },
        {
          "internalType": "string",
          "name": "_districtName",
          "type": "string"
        }
      ],
      "name": "addDistrict",
      "outputs": [],
      "stateMutability": "nonpayable",
      "type": "function"
    },
    {
      "inputs": [
        {
          "internalType": "address",
          "name": "_districtAddress",
          "type": "address"
        }
      ],
      "name": "removeDistrict",
      "outputs": [],
      "stateMutability": "nonpayable",
      "type": "function"
    },
    {
      "inputs": [
        {
          "internalType": "address",
          "name": "_sectorAddress",
          "type": "address"
        },
        {
          "internalType": "string",
          "name": "_sectorName",
          "type": "string"
        }
      ],
      "name": "addSector",
      "outputs": [],
      "stateMutability": "nonpayable",
      "type": "function"
    },
    {
      "inputs": [
        {
          "internalType": "address",
          "name": "_sectorAddress",
          "type": "address"
        }
      ],
      "name": "removeSector",
      "outputs": [],
      "stateMutability": "nonpayable",
      "type": "function"
    },
    {
      "inputs": [
        {
          "internalType": "address",
          "name": "_contractorAddress",
          "type": "address"
        },
        {
          "internalType": "string",
          "name": "_contractorName",
          "type": "string"
        }
      ],
      "name": "addContractor",
      "outputs": [],
      "stateMutability": "nonpayable",
      "type": "function"
    },
    {
      "inputs": [
        {
          "internalType": "address",
          "name": "_contractorAddress",
          "type": "address"
        }
      ],
      "name": "removeContractor",
      "outputs": [],
      "stateMutability": "nonpayable",
      "type": "function"
    },
    {
      "inputs": [
        {
          "internalType": "address",
          "name": "_contractorAddress",
          "type": "address"
        },
        {
          "internalType": "string",
          "name": "_contractorName",
          "type": "string"
        }
      ],
      "name": "addSupplier",
      "outputs": [],
      "stateMutability": "nonpayable",
      "type": "function"
    },
    {
      "inputs": [
        {
          "internalType": "address",
          "name": "_contractorAddress",
          "type": "address"
        }
      ],
      "name": "removeSupplier",
      "outputs": [],
      "stateMutability": "nonpayable",
      "type": "function"
    }
  ],
  "bytecode": "0x608060405234801561001057600080fd5b50336000806101000a81548173ffffffffffffffffffffffffffffffffffffffff021916908373ffffffffffffffffffffffffffffffffffffffff1602179055506000600160006101000a81548173ffffffffffffffffffffffffffffffffffffffff021916908373ffffffffffffffffffffffffffffffffffffffff1602179055506000600260003373ffffffffffffffffffffffffffffffffffffffff1673ffffffffffffffffffffffffffffffffffffffff16815260200190815260200160002081905550613d0b806100e76000396000f3fe6080604052600436106101cc5760003560e01c80636f31dc75116100f7578063aed1061b11610095578063cea2312111610064578063cea23121146106e7578063d27a5d2714610725578063e77995e01461074e578063fb6d25fe1461078c576101cc565b8063aed1061b1461062d578063bd8976c414610656578063c79471661461067f578063c7e293d9146106be576101cc565b80638b5fded9116100d15780638b5fded9146105805780638da5cb5b146105a9578063990dc9db146105d4578063a59003fa146105f0576101cc565b80636f31dc75146104c957806372b73b05146105065780637d5174f014610543576101cc565b806326bed6661161016f578063463365421161013e57806346336542146103e9578063513d14261461042657806361c0ee6d1461044f578063695f2b741461048c576101cc565b806326bed66614610319578063340c0877146103445780633481a95a1461036d5780633ff36493146103ab576101cc565b80630f5f817a116101ab5780630f5f817a14610261578063103d62751461028a5780631c933a3e146102b357806325c3f413146102dc576101cc565b8062c4ea9f146101d1578063017a9105146101fa5780630e44e7b114610238575b600080fd5b3480156101dd57600080fd5b506101f860048036038101906101f39190612f5d565b6107b5565b005b34801561020657600080fd5b50610221600480360381019061021c91906130dd565b610a74565b60405161022f929190613778565b60405180910390f35b34801561024457600080fd5b5061025f600480360381019061025a9190612f5d565b610b50565b005b34801561026d57600080fd5b5061028860048036038101906102839190612f5d565b610e0f565b005b34801561029657600080fd5b506102b160048036038101906102ac91906130a1565b6110ce565b005b3480156102bf57600080fd5b506102da60048036038101906102d5919061304d565b611197565b005b3480156102e857600080fd5b5061030360048036038101906102fe9190612fc2565b61143e565b6040516103109190613988565b60405180910390f35b34801561032557600080fd5b5061032e611463565b60405161033b919061363e565b60405180910390f35b34801561035057600080fd5b5061036b60048036038101906103669190612f5d565b611489565b005b34801561037957600080fd5b50610394600480360381019061038f91906130dd565b6115a0565b6040516103a2929190613778565b60405180910390f35b3480156103b757600080fd5b506103d260048036038101906103cd91906130dd565b61167c565b6040516103e0929190613778565b60405180910390f35b3480156103f557600080fd5b50610410600480360381019061040b9190612f5d565b611758565b60405161041d919061375d565b60405180910390f35b34801561043257600080fd5b5061044d60048036038101906104489190612f5d565b611778565b005b34801561045b57600080fd5b5061047660048036038101906104719190612fc2565b611a37565b6040516104839190613988565b60405180910390f35b34801561049857600080fd5b506104b360048036038101906104ae9190612f5d565b611a5c565b6040516104c09190613988565b60405180910390f35b3480156104d557600080fd5b506104f060048036038101906104eb9190612f5d565b611a74565b6040516104fd919061375d565b60405180910390f35b34801561051257600080fd5b5061052d60048036038101906105289190612f5d565b611a94565b60405161053a919061375d565b60405180910390f35b34801561054f57600080fd5b5061056a60048036038101906105659190612f5d565b611ab4565b604051610577919061375d565b60405180910390f35b34801561058c57600080fd5b506105a760048036038101906105a2919061304d565b611ad4565b005b3480156105b557600080fd5b506105be611d7b565b6040516105cb919061363e565b60405180910390f35b6105ee60048036038101906105e99190612f86565b611d9f565b005b3480156105fc57600080fd5b5061061760048036038101906106129190612f5d565b611f9f565b604051610624919061375d565b60405180910390f35b34801561063957600080fd5b50610654600480360381019061064f9190612f5d565b611fbf565b005b34801561066257600080fd5b5061067d6004803603810190610678919061304d565b61227e565b005b34801561068b57600080fd5b506106a660048036038101906106a19190612ffe565b612525565b6040516106b593929190613659565b60405180910390f35b3480156106ca57600080fd5b506106e560048036038101906106e09190612ffe565b6125b9565b005b3480156106f357600080fd5b5061070e600480360381019061070991906130dd565b6126cd565b60405161071c929190613778565b60405180910390f35b34801561073157600080fd5b5061074c6004803603810190610747919061304d565b6127a9565b005b34801561075a57600080fd5b50610775600480360381019061077091906130dd565b612a50565b604051610783929190613778565b60405180910390f35b34801561079857600080fd5b506107b360048036038101906107ae919061304d565b612b2c565b005b60008054906101000a900473ffffffffffffffffffffffffffffffffffffffff1673ffffffffffffffffffffffffffffffffffffffff163373ffffffffffffffffffffffffffffffffffffffff1614610843576040517f08c379a000000000000000000000000000000000000000000000000000000000815260040161083a906137a8565b60405180910390fd5b600a60008273ffffffffffffffffffffffffffffffffffffffff1673ffffffffffffffffffffffffffffffffffffffff16815260200190815260200160002060009054906101000a900460ff166108cf576040517f08c379a00000000000000000000000000000000000000000000000000000000081526004016108c690613968565b60405180910390fd5b60005b600980549050811015610a70578173ffffffffffffffffffffffffffffffffffffffff1660098281548110610930577f4e487b7100000000000000000000000000000000000000000000000000000000600052603260045260246000fd5b906000526020600020906002020160010160009054906101000a900473ffffffffffffffffffffffffffffffffffffffff1673ffffffffffffffffffffffffffffffffffffffff161415610a5d57600981815481106109b8577f4e487b7100000000000000000000000000000000000000000000000000000000600052603260045260246000fd5b9060005260206000209060020201600080820160006109d79190612dd3565b6001820160006101000a81549073ffffffffffffffffffffffffffffffffffffffff021916905550506000600a60008473ffffffffffffffffffffffffffffffffffffffff1673ffffffffffffffffffffffffffffffffffffffff16815260200190815260200160002060006101000a81548160ff021916908315150217905550610a70565b8080610a6890613ba9565b9150506108d2565b5050565b60078181548110610a8457600080fd5b9060005260206000209060020201600091509050806000018054610aa790613b77565b80601f0160208091040260200160405190810160405280929190818152602001828054610ad390613b77565b8015610b205780601f10610af557610100808354040283529160200191610b20565b820191906000526020600020905b815481529060010190602001808311610b0357829003601f168201915b5050505050908060010160009054906101000a900473ffffffffffffffffffffffffffffffffffffffff16905082565b60008054906101000a900473ffffffffffffffffffffffffffffffffffffffff1673ffffffffffffffffffffffffffffffffffffffff163373ffffffffffffffffffffffffffffffffffffffff1614610bde576040517f08c379a0000000000000000000000000000000000000000000000000000000008152600401610bd5906137a8565b60405180910390fd5b600e60008273ffffffffffffffffffffffffffffffffffffffff1673ffffffffffffffffffffffffffffffffffffffff16815260200190815260200160002060009054906101000a900460ff16610c6a576040517f08c379a0000000000000000000000000000000000000000000000000000000008152600401610c6190613948565b60405180910390fd5b60005b600d80549050811015610e0b578173ffffffffffffffffffffffffffffffffffffffff16600d8281548110610ccb577f4e487b7100000000000000000000000000000000000000000000000000000000600052603260045260246000fd5b906000526020600020906002020160010160009054906101000a900473ffffffffffffffffffffffffffffffffffffffff1673ffffffffffffffffffffffffffffffffffffffff161415610df857600d8181548110610d53577f4e487b7100000000000000000000000000000000000000000000000000000000600052603260045260246000fd5b906000526020600020906002020160008082016000610d729190612dd3565b6001820160006101000a81549073ffffffffffffffffffffffffffffffffffffffff021916905550506000600e60008473ffffffffffffffffffffffffffffffffffffffff1673ffffffffffffffffffffffffffffffffffffffff16815260200190815260200160002060006101000a81548160ff021916908315150217905550610e0b565b8080610e0390613ba9565b915050610c6d565b5050565b60008054906101000a900473ffffffffffffffffffffffffffffffffffffffff1673ffffffffffffffffffffffffffffffffffffffff163373ffffffffffffffffffffffffffffffffffffffff1614610e9d576040517f08c379a0000000000000000000000000000000000000000000000000000000008152600401610e94906137a8565b60405180910390fd5b600e60008273ffffffffffffffffffffffffffffffffffffffff1673ffffffffffffffffffffffffffffffffffffffff16815260200190815260200160002060009054906101000a900460ff16610f29576040517f08c379a0000000000000000000000000000000000000000000000000000000008152600401610f2090613948565b60405180910390fd5b60005b600d805490508110156110ca578173ffffffffffffffffffffffffffffffffffffffff16600d8281548110610f8a577f4e487b7100000000000000000000000000000000000000000000000000000000600052603260045260246000fd5b906000526020600020906002020160010160009054906101000a900473ffffffffffffffffffffffffffffffffffffffff1673ffffffffffffffffffffffffffffffffffffffff1614156110b757600d8181548110611012577f4e487b7100000000000000000000000000000000000000000000000000000000600052603260045260246000fd5b9060005260206000209060020201600080820160006110319190612dd3565b6001820160006101000a81549073ffffffffffffffffffffffffffffffffffffffff021916905550506000600e60008473ffffffffffffffffffffffffffffffffffffffff1673ffffffffffffffffffffffffffffffffffffffff16815260200190815260200160002060006101000a81548160ff0219169083151502179055506110ca565b80806110c290613ba9565b915050610f2c565b5050565b600260003373ffffffffffffffffffffffffffffffffffffffff1673ffffffffffffffffffffffffffffffffffffffff16815260200190815260200160002054811161114f576040517f08c379a000000000000000000000000000000000000000000000000000000000815260040161114690613868565b60405180910390fd5b80600260008473ffffffffffffffffffffffffffffffffffffffff1673ffffffffffffffffffffffffffffffffffffffff168152602001908152602001600020819055505050565b60008054906101000a900473ffffffffffffffffffffffffffffffffffffffff1673ffffffffffffffffffffffffffffffffffffffff163373ffffffffffffffffffffffffffffffffffffffff1614611225576040517f08c379a000000000000000000000000000000000000000000000000000000000815260040161121c906137a8565b60405180910390fd5b600e60008373ffffffffffffffffffffffffffffffffffffffff1673ffffffffffffffffffffffffffffffffffffffff16815260200190815260200160002060009054906101000a900460ff16156112b2576040517f08c379a00000000000000000000000000000000000000000000000000000000081526004016112a990613888565b60405180910390fd5b600060405180604001604052808381526020018473ffffffffffffffffffffffffffffffffffffffff168152509050600d8190806001815401808255809150506001900390600052602060002090600202016000909190919091506000820151816000019080519060200190611329929190612e13565b5060208201518160010160006101000a81548173ffffffffffffffffffffffffffffffffffffffff021916908373ffffffffffffffffffffffffffffffffffffffff16021790555050506001600e60008573ffffffffffffffffffffffffffffffffffffffff1673ffffffffffffffffffffffffffffffffffffffff16815260200190815260200160002060006101000a81548160ff0219169083151502179055503073ffffffffffffffffffffffffffffffffffffffff1663103d62758460066040518363ffffffff1660e01b8152600401611407929190613734565b600060405180830381600087803b15801561142157600080fd5b505af1158015611435573d6000803e3d6000fd5b50505050505050565b6003602052816000526040600020602052806000526040600020600091509150505481565b600160009054906101000a900473ffffffffffffffffffffffffffffffffffffffff1681565b60008054906101000a900473ffffffffffffffffffffffffffffffffffffffff1673ffffffffffffffffffffffffffffffffffffffff163373ffffffffffffffffffffffffffffffffffffffff1614611517576040517f08c379a000000000000000000000000000000000000000000000000000000000815260040161150e906137a8565b60405180910390fd5b80600160006101000a81548173ffffffffffffffffffffffffffffffffffffffff021916908373ffffffffffffffffffffffffffffffffffffffff1602179055506001600260008373ffffffffffffffffffffffffffffffffffffffff1673ffffffffffffffffffffffffffffffffffffffff1681526020019081526020016000208190555050565b600d81815481106115b057600080fd5b90600052602060002090600202016000915090508060000180546115d390613b77565b80601f01602080910402602001604051908101604052809291908181526020018280546115ff90613b77565b801561164c5780601f106116215761010080835404028352916020019161164c565b820191906000526020600020905b81548152906001019060200180831161162f57829003601f168201915b5050505050908060010160009054906101000a900473ffffffffffffffffffffffffffffffffffffffff16905082565b600b818154811061168c57600080fd5b90600052602060002090600202016000915090508060000180546116af90613b77565b80601f01602080910402602001604051908101604052809291908181526020018280546116db90613b77565b80156117285780601f106116fd57610100808354040283529160200191611728565b820191906000526020600020905b81548152906001019060200180831161170b57829003601f168201915b5050505050908060010160009054906101000a900473ffffffffffffffffffffffffffffffffffffffff16905082565b60106020528060005260406000206000915054906101000a900460ff1681565b60008054906101000a900473ffffffffffffffffffffffffffffffffffffffff1673ffffffffffffffffffffffffffffffffffffffff163373ffffffffffffffffffffffffffffffffffffffff1614611806576040517f08c379a00000000000000000000000000000000000000000000000000000000081526004016117fd906137a8565b60405180910390fd5b600c60008273ffffffffffffffffffffffffffffffffffffffff1673ffffffffffffffffffffffffffffffffffffffff16815260200190815260200160002060009054906101000a900460ff16611892576040517f08c379a000000000000000000000000000000000000000000000000000000000815260040161188990613848565b60405180910390fd5b60005b600b80549050811015611a33578173ffffffffffffffffffffffffffffffffffffffff16600b82815481106118f3577f4e487b7100000000000000000000000000000000000000000000000000000000600052603260045260246000fd5b906000526020600020906002020160010160009054906101000a900473ffffffffffffffffffffffffffffffffffffffff1673ffffffffffffffffffffffffffffffffffffffff161415611a2057600b818154811061197b577f4e487b7100000000000000000000000000000000000000000000000000000000600052603260045260246000fd5b90600052602060002090600202016000808201600061199a9190612dd3565b6001820160006101000a81549073ffffffffffffffffffffffffffffffffffffffff021916905550506000600c60008473ffffffffffffffffffffffffffffffffffffffff1673ffffffffffffffffffffffffffffffffffffffff16815260200190815260200160002060006101000a81548160ff021916908315150217905550611a33565b8080611a2b90613ba9565b915050611895565b5050565b6004602052816000526040600020602052806000526040600020600091509150505481565b60026020528060005260406000206000915090505481565b600c6020528060005260406000206000915054906101000a900460ff1681565b600e6020528060005260406000206000915054906101000a900460ff1681565b60086020528060005260406000206000915054906101000a900460ff1681565b60008054906101000a900473ffffffffffffffffffffffffffffffffffffffff1673ffffffffffffffffffffffffffffffffffffffff163373ffffffffffffffffffffffffffffffffffffffff1614611b62576040517f08c379a0000000000000000000000000000000000000000000000000000000008152600401611b59906137a8565b60405180910390fd5b600a60008373ffffffffffffffffffffffffffffffffffffffff1673ffffffffffffffffffffffffffffffffffffffff16815260200190815260200160002060009054906101000a900460ff1615611bef576040517f08c379a0000000000000000000000000000000000000000000000000000000008152600401611be690613808565b60405180910390fd5b600060405180604001604052808381526020018473ffffffffffffffffffffffffffffffffffffffff16815250905060098190806001815401808255809150506001900390600052602060002090600202016000909190919091506000820151816000019080519060200190611c66929190612e13565b5060208201518160010160006101000a81548173ffffffffffffffffffffffffffffffffffffffff021916908373ffffffffffffffffffffffffffffffffffffffff16021790555050506001600a60008573ffffffffffffffffffffffffffffffffffffffff1673ffffffffffffffffffffffffffffffffffffffff16815260200190815260200160002060006101000a81548160ff0219169083151502179055503073ffffffffffffffffffffffffffffffffffffffff1663103d62758460026040518363ffffffff1660e01b8152600401611d44929190613690565b600060405180830381600087803b158015611d5e57600080fd5b505af1158015611d72573d6000803e3d6000fd5b50505050505050565b60008054906101000a900473ffffffffffffffffffffffffffffffffffffffff1681565b348114611de1576040517f08c379a0000000000000000000000000000000000000000000000000000000008152600401611dd8906137c8565b60405180910390fd5b600073ffffffffffffffffffffffffffffffffffffffff168273ffffffffffffffffffffffffffffffffffffffff161415611e51576040517f08c379a0000000000000000000000000000000000000000000000000000000008152600401611e4890613908565b60405180910390fd5b803373ffffffffffffffffffffffffffffffffffffffff16311015611eab576040517f08c379a0000000000000000000000000000000000000000000000000000000008152600401611ea290613828565b60405180910390fd5b60008111611eee576040517f08c379a0000000000000000000000000000000000000000000000000000000008152600401611ee5906138c8565b60405180910390fd5b60008273ffffffffffffffffffffffffffffffffffffffff1634604051611f1490613629565b60006040518083038185875af1925050503d8060008114611f51576040519150601f19603f3d011682016040523d82523d6000602084013e611f56565b606091505b5050905080611f9a576040517f08c379a0000000000000000000000000000000000000000000000000000000008152600401611f91906137e8565b60405180910390fd5b505050565b600a6020528060005260406000206000915054906101000a900460ff1681565b60008054906101000a900473ffffffffffffffffffffffffffffffffffffffff1673ffffffffffffffffffffffffffffffffffffffff163373ffffffffffffffffffffffffffffffffffffffff161461204d576040517f08c379a0000000000000000000000000000000000000000000000000000000008152600401612044906137a8565b60405180910390fd5b600a60008273ffffffffffffffffffffffffffffffffffffffff1673ffffffffffffffffffffffffffffffffffffffff16815260200190815260200160002060009054906101000a900460ff166120d9576040517f08c379a00000000000000000000000000000000000000000000000000000000081526004016120d090613928565b60405180910390fd5b60005b60098054905081101561227a578173ffffffffffffffffffffffffffffffffffffffff166009828154811061213a577f4e487b7100000000000000000000000000000000000000000000000000000000600052603260045260246000fd5b906000526020600020906002020160010160009054906101000a900473ffffffffffffffffffffffffffffffffffffffff1673ffffffffffffffffffffffffffffffffffffffff16141561226757600981815481106121c2577f4e487b7100000000000000000000000000000000000000000000000000000000600052603260045260246000fd5b9060005260206000209060020201600080820160006121e19190612dd3565b6001820160006101000a81549073ffffffffffffffffffffffffffffffffffffffff021916905550506000600a60008473ffffffffffffffffffffffffffffffffffffffff1673ffffffffffffffffffffffffffffffffffffffff16815260200190815260200160002060006101000a81548160ff02191690831515021790555061227a565b808061227290613ba9565b9150506120dc565b5050565b60008054906101000a900473ffffffffffffffffffffffffffffffffffffffff1673ffffffffffffffffffffffffffffffffffffffff163373ffffffffffffffffffffffffffffffffffffffff161461230c576040517f08c379a0000000000000000000000000000000000000000000000000000000008152600401612303906137a8565b60405180910390fd5b600e60008373ffffffffffffffffffffffffffffffffffffffff1673ffffffffffffffffffffffffffffffffffffffff16815260200190815260200160002060009054906101000a900460ff1615612399576040517f08c379a000000000000000000000000000000000000000000000000000000000815260040161239090613888565b60405180910390fd5b600060405180604001604052808381526020018473ffffffffffffffffffffffffffffffffffffffff168152509050600d8190806001815401808255809150506001900390600052602060002090600202016000909190919091506000820151816000019080519060200190612410929190612e13565b5060208201518160010160006101000a81548173ffffffffffffffffffffffffffffffffffffffff021916908373ffffffffffffffffffffffffffffffffffffffff16021790555050506001600e60008573ffffffffffffffffffffffffffffffffffffffff1673ffffffffffffffffffffffffffffffffffffffff16815260200190815260200160002060006101000a81548160ff0219169083151502179055503073ffffffffffffffffffffffffffffffffffffffff1663103d62758460056040518363ffffffff1660e01b81526004016124ee92919061370b565b600060405180830381600087803b15801561250857600080fd5b505af115801561251c573d6000803e3d6000fd5b50505050505050565b6005602052826000526040600020602052816000526040600020818154811061254d57600080fd5b906000526020600020906003020160009250925050508060000160009054906101000a900473ffffffffffffffffffffffffffffffffffffffff16908060010160009054906101000a900473ffffffffffffffffffffffffffffffffffffffff16908060020154905083565b80600360008573ffffffffffffffffffffffffffffffffffffffff1673ffffffffffffffffffffffffffffffffffffffff16815260200190815260200160002060008473ffffffffffffffffffffffffffffffffffffffff1673ffffffffffffffffffffffffffffffffffffffff16815260200190815260200160002060008282546126459190613a2b565b925050819055508173ffffffffffffffffffffffffffffffffffffffff168373ffffffffffffffffffffffffffffffffffffffff163373ffffffffffffffffffffffffffffffffffffffff167f3770108e97bde5ff5b5c39723a6eca55bc7f69ff1c634fd0d2f0392d39b0a8fc846040516126c09190613988565b60405180910390a4505050565b600f81815481106126dd57600080fd5b906000526020600020906002020160009150905080600001805461270090613b77565b80601f016020809104026020016040519081016040528092919081815260200182805461272c90613b77565b80156127795780601f1061274e57610100808354040283529160200191612779565b820191906000526020600020905b81548152906001019060200180831161275c57829003601f168201915b5050505050908060010160009054906101000a900473ffffffffffffffffffffffffffffffffffffffff16905082565b60008054906101000a900473ffffffffffffffffffffffffffffffffffffffff1673ffffffffffffffffffffffffffffffffffffffff163373ffffffffffffffffffffffffffffffffffffffff1614612837576040517f08c379a000000000000000000000000000000000000000000000000000000000815260040161282e906137a8565b60405180910390fd5b600a60008373ffffffffffffffffffffffffffffffffffffffff1673ffffffffffffffffffffffffffffffffffffffff16815260200190815260200160002060009054906101000a900460ff16156128c4576040517f08c379a00000000000000000000000000000000000000000000000000000000081526004016128bb906138a8565b60405180910390fd5b600060405180604001604052808381526020018473ffffffffffffffffffffffffffffffffffffffff1681525090506009819080600181540180825580915050600190039060005260206000209060020201600090919091909150600082015181600001908051906020019061293b929190612e13565b5060208201518160010160006101000a81548173ffffffffffffffffffffffffffffffffffffffff021916908373ffffffffffffffffffffffffffffffffffffffff16021790555050506001600a60008573ffffffffffffffffffffffffffffffffffffffff1673ffffffffffffffffffffffffffffffffffffffff16815260200190815260200160002060006101000a81548160ff0219169083151502179055503073ffffffffffffffffffffffffffffffffffffffff1663103d62758460036040518363ffffffff1660e01b8152600401612a199291906136b9565b600060405180830381600087803b158015612a3357600080fd5b505af1158015612a47573d6000803e3d6000fd5b50505050505050565b60098181548110612a6057600080fd5b9060005260206000209060020201600091509050806000018054612a8390613b77565b80601f0160208091040260200160405190810160405280929190818152602001828054612aaf90613b77565b8015612afc5780601f10612ad157610100808354040283529160200191612afc565b820191906000526020600020905b815481529060010190602001808311612adf57829003601f168201915b5050505050908060010160009054906101000a900473ffffffffffffffffffffffffffffffffffffffff16905082565b60008054906101000a900473ffffffffffffffffffffffffffffffffffffffff1673ffffffffffffffffffffffffffffffffffffffff163373ffffffffffffffffffffffffffffffffffffffff1614612bba576040517f08c379a0000000000000000000000000000000000000000000000000000000008152600401612bb1906137a8565b60405180910390fd5b600c60008373ffffffffffffffffffffffffffffffffffffffff1673ffffffffffffffffffffffffffffffffffffffff16815260200190815260200160002060009054906101000a900460ff1615612c47576040517f08c379a0000000000000000000000000000000000000000000000000000000008152600401612c3e906138e8565b60405180910390fd5b600060405180604001604052808381526020018473ffffffffffffffffffffffffffffffffffffffff168152509050600b8190806001815401808255809150506001900390600052602060002090600202016000909190919091506000820151816000019080519060200190612cbe929190612e13565b5060208201518160010160006101000a81548173ffffffffffffffffffffffffffffffffffffffff021916908373ffffffffffffffffffffffffffffffffffffffff16021790555050506001600c60008573ffffffffffffffffffffffffffffffffffffffff1673ffffffffffffffffffffffffffffffffffffffff16815260200190815260200160002060006101000a81548160ff0219169083151502179055503073ffffffffffffffffffffffffffffffffffffffff1663103d62758460046040518363ffffffff1660e01b8152600401612d9c9291906136e2565b600060405180830381600087803b158015612db657600080fd5b505af1158015612dca573d6000803e3d6000fd5b50505050505050565b508054612ddf90613b77565b6000825580601f10612df15750612e10565b601f016020900490600052602060002090810190612e0f9190612e99565b5b50565b828054612e1f90613b77565b90600052602060002090601f016020900481019282612e415760008555612e88565b82601f10612e5a57805160ff1916838001178555612e88565b82800160010185558215612e88579182015b82811115612e87578251825591602001919060010190612e6c565b5b509050612e959190612e99565b5090565b5b80821115612eb2576000816000905550600101612e9a565b5090565b6000612ec9612ec4846139d4565b6139a3565b905082815260208101848484011115612ee157600080fd5b612eec848285613b35565b509392505050565b600081359050612f0381613c90565b92915050565b600081359050612f1881613ca7565b92915050565b600082601f830112612f2f57600080fd5b8135612f3f848260208601612eb6565b91505092915050565b600081359050612f5781613cbe565b92915050565b600060208284031215612f6f57600080fd5b6000612f7d84828501612ef4565b91505092915050565b60008060408385031215612f9957600080fd5b6000612fa785828601612f09565b9250506020612fb885828601612f48565b9150509250929050565b60008060408385031215612fd557600080fd5b6000612fe385828601612ef4565b9250506020612ff485828601612ef4565b9150509250929050565b60008060006060848603121561301357600080fd5b600061302186828701612ef4565b935050602061303286828701612ef4565b925050604061304386828701612f48565b9150509250925092565b6000806040838503121561306057600080fd5b600061306e85828601612ef4565b925050602083013567ffffffffffffffff81111561308b57600080fd5b61309785828601612f1e565b9150509250929050565b600080604083850312156130b457600080fd5b60006130c285828601612ef4565b92505060206130d385828601612f48565b9150509250929050565b6000602082840312156130ef57600080fd5b60006130fd84828501612f48565b91505092915050565b61310f81613a81565b82525050565b61311e81613aa5565b82525050565b61312d81613adb565b82525050565b61313c81613aed565b82525050565b61314b81613aff565b82525050565b61315a81613b11565b82525050565b61316981613b23565b82525050565b600061317a82613a04565b6131848185613a1a565b9350613194818560208601613b44565b61319d81613c7f565b840191505092915050565b60006131b5602683613a1a565b91507f4f6e6c7920746865206f776e65722063616e2063616c6c20746869732066756e60008301527f6374696f6e2e00000000000000000000000000000000000000000000000000006020830152604082019050919050565b600061321b602f83613a1a565b91507f416d6f756e7420706172616d657465722073686f756c6420626520657175616c60008301527f20746f20616d6f756e742073656e7400000000000000000000000000000000006020830152604082019050919050565b6000613281601483613a1a565b91507f4661696c656420746f2073656e642045746865720000000000000000000000006000830152602082019050919050565b60006132c1601583613a1a565b91507f537461746520616c7265616479206578697374732e00000000000000000000006000830152602082019050919050565b6000613301601483613a1a565b91507f496e73756666696369656e742062616c616e63650000000000000000000000006000830152602082019050919050565b6000613341601583613a1a565b91507f536563746f7220646f6573206e6f7420657869737400000000000000000000006000830152602082019050919050565b6000613381603383613a1a565b91507f596f752063616e206f6e6c79207365742068696572617263687920666f72206c60008301527f6f776572206f7267616e697a6174696f6e732e000000000000000000000000006020830152604082019050919050565b60006133e7601a83613a1a565b91507f436f6e74726163746f7220616c7265616479206578697374732e0000000000006000830152602082019050919050565b6000613427601883613a1a565b91507f446973747269637420616c7265616479206578697374732e00000000000000006000830152602082019050919050565b6000613467602283613a1a565b91507f416d6f756e742073686f756c642062652067726561746572207468616e207a6560008301527f726f0000000000000000000000000000000000000000000000000000000000006020830152604082019050919050565b60006134cd601683613a1a565b91507f536563746f7220616c7265616479206578697374732e000000000000000000006000830152602082019050919050565b600061350d601983613a1a565b91507f496e76616c696420726563697069656e742061646472657373000000000000006000830152602082019050919050565b600061354d601783613a1a565b91507f446973747269637420646f6573206e6f742065786973740000000000000000006000830152602082019050919050565b600061358d601b83613a1a565b91507f436f6e74726163746f7220646f6573206e6f74206578697374732e00000000006000830152602082019050919050565b60006135cd600083613a0f565b9150600082019050919050565b60006135e7601483613a1a565b91507f537461746520646f6573206e6f742065786973740000000000000000000000006000830152602082019050919050565b61362381613ad1565b82525050565b6000613634826135c0565b9150819050919050565b60006020820190506136536000830184613106565b92915050565b600060608201905061366e6000830186613106565b61367b6020830185613106565b613688604083018461361a565b949350505050565b60006040820190506136a56000830185613106565b6136b26020830184613124565b9392505050565b60006040820190506136ce6000830185613106565b6136db6020830184613133565b9392505050565b60006040820190506136f76000830185613106565b6137046020830184613142565b9392505050565b60006040820190506137206000830185613106565b61372d6020830184613151565b9392505050565b60006040820190506137496000830185613106565b6137566020830184613160565b9392505050565b60006020820190506137726000830184613115565b92915050565b60006040820190508181036000830152613792818561316f565b90506137a16020830184613106565b9392505050565b600060208201905081810360008301526137c1816131a8565b9050919050565b600060208201905081810360008301526137e18161320e565b9050919050565b6000602082019050818103600083015261380181613274565b9050919050565b60006020820190508181036000830152613821816132b4565b9050919050565b60006020820190508181036000830152613841816132f4565b9050919050565b6000602082019050818103600083015261386181613334565b9050919050565b6000602082019050818103600083015261388181613374565b9050919050565b600060208201905081810360008301526138a1816133da565b9050919050565b600060208201905081810360008301526138c18161341a565b9050919050565b600060208201905081810360008301526138e18161345a565b9050919050565b60006020820190508181036000830152613901816134c0565b9050919050565b6000602082019050818103600083015261392181613500565b9050919050565b6000602082019050818103600083015261394181613540565b9050919050565b6000602082019050818103600083015261396181613580565b9050919050565b60006020820190508181036000830152613981816135da565b9050919050565b600060208201905061399d600083018461361a565b92915050565b6000604051905081810181811067ffffffffffffffff821117156139ca576139c9613c50565b5b8060405250919050565b600067ffffffffffffffff8211156139ef576139ee613c50565b5b601f19601f8301169050602081019050919050565b600081519050919050565b600081905092915050565b600082825260208201905092915050565b6000613a3682613ad1565b9150613a4183613ad1565b9250827fffffffffffffffffffffffffffffffffffffffffffffffffffffffffffffffff03821115613a7657613a75613bf2565b5b828201905092915050565b6000613a8c82613ab1565b9050919050565b6000613a9e82613ab1565b9050919050565b60008115159050919050565b600073ffffffffffffffffffffffffffffffffffffffff82169050919050565b6000819050919050565b6000613ae682613ad1565b9050919050565b6000613af882613ad1565b9050919050565b6000613b0a82613ad1565b9050919050565b6000613b1c82613ad1565b9050919050565b6000613b2e82613ad1565b9050919050565b82818337600083830152505050565b60005b83811015613b62578082015181840152602081019050613b47565b83811115613b71576000848401525b50505050565b60006002820490506001821680613b8f57607f821691505b60208210811415613ba357613ba2613c21565b5b50919050565b6000613bb482613ad1565b91507fffffffffffffffffffffffffffffffffffffffffffffffffffffffffffffffff821415613be757613be6613bf2565b5b600182019050919050565b7f4e487b7100000000000000000000000000000000000000000000000000000000600052601160045260246000fd5b7f4e487b7100000000000000000000000000000000000000000000000000000000600052602260045260246000fd5b7f4e487b7100000000000000000000000000000000000000000000000000000000600052604160045260246000fd5b6000601f19601f8301169050919050565b613c9981613a81565b8114613ca457600080fd5b50565b613cb081613a93565b8114613cbb57600080fd5b50565b613cc781613ad1565b8114613cd257600080fd5b5056fea26469706673582212206b62b753b142eaf81d47ca366c95707f02e28027d6d6a52623d404786d881c0164736f6c63430008000033",
  "immutableReferences": {},
  "source": "// SPDX-License-Identifier: MIT\npragma solidity ^0.8.0;\n\ncontract FundMonitor {\n    // global variable & modifier\n    address public owner;\n    address public centralGov;\n    mapping(address => uint256) public hierarchy; // Maps organization address to hierarchy level\n\n    modifier onlyOwner() {\n        require(msg.sender == owner, \"Only the owner can call this function.\");\n        _;\n    }\n\n    modifier onlyHigherHierarchy() {\n        require(\n            hierarchy[msg.sender] < hierarchy[centralGov],\n            \"Only higher hierarchy organizations can call this function.\"\n        );\n        _;\n    }\n\n    // Fund monitor Code\n    struct Transfer {\n        address fromDistrict;\n        address toSector;\n        uint256 amount;\n    }\n\n    mapping(address => mapping(address => uint256)) public allocatedFunds;\n    mapping(address => mapping(address => uint256)) public transferredFunds;\n    mapping(address => mapping(address => Transfer[])) public transferHistory;\n\n    // mapping(address => mapping(address => bool)) public isDistrictSector; // to check if the sector belongs to that district\n\n    event FundsAllocated(\n        address indexed sender,\n        address indexed district,\n        address indexed sector,\n        uint256 amount\n    );\n    event FundsTransferred(\n        address indexed sender,\n        address indexed fromDistrict,\n        address indexed toSector,\n        uint256 amount\n    );\n\n    constructor() {\n        owner = msg.sender;\n        centralGov = address(0); // Set the central government address initially to address(0)\n        hierarchy[msg.sender] = 0; // Owner (deployer of the contract) is assigned the highest hierarchy (0)\n    }\n\n\n    function setHierarchy(address organization, uint256 level) external {\n        require(level > hierarchy[msg.sender], \"You can only set hierarchy for lower organizations.\");\n        hierarchy[organization] = level;\n    }\n\n    function allocateFunds(address fromAddress, address toAddress, uint256 value)\n        external\n    {\n        // require(hierarchy[fromAddress] < hierarchy[toAddress], \"You can only allocate for lower organizations.\");\n        allocatedFunds[fromAddress][toAddress] += value;\n        emit FundsAllocated(msg.sender, fromAddress, toAddress, value);\n\n    }\n        // if (isDistrictSector[fromAddress][toAddress] == false) {\n        //     isDistrictSector[fromAddress][toAddress] = true;\n        // }\n                        // address fromAddress,\n    function transferFunds(address payable toAddress, uint256 amount) \n        external\n        payable \n    {\n        require(amount == msg.value, \"Amount parameter should be equal to amount sent\");\n        require(toAddress != address(0), \"Invalid recipient address\");\n        require(address(msg.sender).balance >= amount, \"Insufficient balance\");\n        require(amount > 0, \"Amount should be greater than zero\");\n\n        // Transfer funds from the organization's address to the specified address\n        (bool sent, ) = toAddress.call{value: msg.value}(\"\");\n        require(sent, \"Failed to send Ether\");\n    }\n    // -------------FUND MONITOR ends.-------------\n    //  CENTRAL GOVENRMENT code.\n    struct Central {\n        address centralAddress;\n    }\n    Central central;\n    \n    function setCentralGov(address _centralGov) external onlyOwner {\n        centralGov = _centralGov;\n        hierarchy[_centralGov] = 1; // Central government is assigned hierarchy 1\n    }\n\n    // ----------------CENTRAL GOVERNMENT ENDS.----------------\n    //  STATE code.\n    struct State {\n        string nameOfState;\n        address stateAddress;\n    }\n\n    State[] public states;\n    mapping(address => bool) public isState;\n\n    function addState (address _stateAddress, string memory _stateName)\n        public\n        onlyOwner\n    {\n        require(!isDistrict[_stateAddress], \"State already exists.\");\n        District memory newDistrict = District(_stateName, _stateAddress);\n        districts.push(newDistrict);\n        isDistrict[_stateAddress] = true;\n        this.setHierarchy(_stateAddress, 2);\n    }\n\n    function removeState(address _stateAddress) \n        public\n        onlyOwner \n        \n    {\n        require(isDistrict[_stateAddress], \"State does not exist\");\n\n        for (uint256 i = 0; i < districts.length; i++) {\n            if (districts[i].districtAddress == _stateAddress) {\n                delete districts[i];\n                isDistrict[_stateAddress] = false;\n                break;\n            }\n        }\n    }\n    // ----------------STATE ENDS.----------------\n    //  DISTRICT code.\n    struct District {\n        string nameOfDistrict;\n        address districtAddress;\n    }\n\n    District[] public districts;\n    mapping(address => bool) public isDistrict;\n\n    function addDistrict(address _districtAddress, string memory _districtName)\n        public\n        onlyOwner\n        \n    {\n        require(!isDistrict[_districtAddress], \"District already exists.\");\n        District memory newDistrict = District(_districtName, _districtAddress);\n        districts.push(newDistrict);\n        isDistrict[_districtAddress] = true;\n        this.setHierarchy(_districtAddress, 3);\n    }\n\n    function removeDistrict(address _districtAddress)\n        public\n        onlyOwner\n        \n    {\n        require(isDistrict[_districtAddress], \"District does not exist\");\n\n        for (uint256 i = 0; i < districts.length; i++) {\n            if (districts[i].districtAddress == _districtAddress) {\n                delete districts[i];\n                isDistrict[_districtAddress] = false;\n                break;\n            }\n        }\n    }\n    // ----------------DISTRICT ENDS.----------------\n    // code for SECTORS\n    struct Sectors {\n        string nameOfSectors;\n        address sectorAddress;\n    }\n\n    Sectors[] public sectors;\n    mapping(address => bool) public isSector;\n\n    function addSector(address _sectorAddress, string memory _sectorName)\n        public\n        onlyOwner    \n    {\n        require(!isSector[_sectorAddress], \"Sector already exists.\");\n        Sectors memory newSector = Sectors(_sectorName, _sectorAddress);\n        sectors.push(newSector);\n        isSector[_sectorAddress] = true;\n        this.setHierarchy(_sectorAddress, 4);\n    }\n\n    function removeSector(address _sectorAddress) \n        public \n        onlyOwner\n         \n    {\n        require(isSector[_sectorAddress], \"Sector does not exist\");\n\n        for (uint256 i = 0; i < sectors.length; i++) {\n            if (sectors[i].sectorAddress == _sectorAddress) {\n                delete sectors[i];\n                isSector[_sectorAddress] = false;\n                break;\n            }\n        }\n    }\n\n    // ----------------SECTOR ENDS.----------------\n    // code for CONTRACTORS\n    struct Contractor {\n        string nameOfContractor;\n        address contractorAddress;\n    }\n\n    Contractor[] public contractors;\n    mapping(address => bool) public isContractor;\n\n    function addContractor(address _contractorAddress, string memory _contractorName)\n        public \n        onlyOwner\n    {\n        require(!isContractor[_contractorAddress], \"Contractor already exists.\");\n        Contractor memory newcontractor = Contractor(_contractorName, _contractorAddress);\n        contractors.push(newcontractor);\n        isContractor[_contractorAddress] = true;\n        this.setHierarchy(_contractorAddress, 5);\n    }\n\n    function removeContractor(address _contractorAddress) \n        public \n        onlyOwner\n    {\n        require(isContractor[_contractorAddress], \"Contractor does not exists.\");\n\n        for (uint256 i = 0; i < contractors.length; i++) {\n            if (contractors[i].contractorAddress == _contractorAddress) {\n                delete contractors[i];\n                isContractor[_contractorAddress] = false;\n                break;\n            }\n        }\n    }\n    // ----------------COTRACTOR ENDS.----------------\n    // code for SUPPLIERS\n    struct Supplier {\n        string nameOfContractor;\n        address contractorAddress;\n    }\n\n    Supplier[] public suppliers;\n    mapping(address => bool) public isSupplier;\n\n    function addSupplier(address _contractorAddress, string memory _contractorName) \n        public \n        onlyOwner\n    {\n        require(!isContractor[_contractorAddress], \"Contractor already exists.\");\n        Contractor memory newcontractor = Contractor(_contractorName, _contractorAddress);\n        contractors.push(newcontractor);\n        isContractor[_contractorAddress] = true;\n        this.setHierarchy(_contractorAddress, 6);\n    }\n\n    function removeSupplier(address _contractorAddress) \n        public \n        onlyOwner  \n    {\n        require(isContractor[_contractorAddress], \"Contractor does not exists.\");\n\n        for (uint256 i = 0; i < contractors.length; i++) {\n            if (contractors[i].contractorAddress == _contractorAddress) {\n                delete contractors[i];\n                isContractor[_contractorAddress] = false;\n                break;\n            }\n        }\n    }\n    // ----------------SUPPLIER ENDS.----------------\n}\n",
  "sourcePath": "/home/fatguy/Desktop/codes/web3/TaxRevenueTransparency/contracts/FundMonitor.sol",
  "compiler": {
    "name": "solc",
    "version": "0.8.0+commit.c7dfd78e.Emscripten.clang"
  },
  "schemaVersion": "3.4.14",
  "updatedAt": "2023-07-23T09:04:02.636Z",
  "networkType": "ethereum",
  "devdoc": {
    "kind": "dev",
    "methods": {},
    "version": 1
  },
  "userdoc": {
    "kind": "user",
    "methods": {},
    "version": 1
  }
}