{
  "contractName": "Sectors",
  "abi": [
    {
      "inputs": [],
      "stateMutability": "nonpayable",
      "type": "constructor"
    },
    {
      "inputs": [
        {
          "internalType": "address",
          "name": "",
          "type": "address"
        }
      ],
      "name": "isMember",
      "outputs": [
        {
          "internalType": "bool",
          "name": "",
          "type": "bool"
        }
      ],
      "stateMutability": "view",
      "type": "function"
    },
    {
      "inputs": [
        {
          "internalType": "uint256",
          "name": "",
          "type": "uint256"
        }
      ],
      "name": "members",
      "outputs": [
        {
          "internalType": "address",
          "name": "memberAddress",
          "type": "address"
        },
        {
          "internalType": "string",
          "name": "name",
          "type": "string"
        },
        {
          "internalType": "uint256",
          "name": "ID",
          "type": "uint256"
        }
      ],
      "stateMutability": "view",
      "type": "function"
    },
    {
      "inputs": [],
      "name": "owner",
      "outputs": [
        {
          "internalType": "address",
          "name": "",
          "type": "address"
        }
      ],
      "stateMutability": "view",
      "type": "function"
    },
    {
      "inputs": [
        {
          "internalType": "address",
          "name": "_memberAddress",
          "type": "address"
        },
        {
          "internalType": "string",
          "name": "_name",
          "type": "string"
        },
        {
          "internalType": "uint256",
          "name": "_ID",
          "type": "uint256"
        }
      ],
      "name": "addMember",
      "outputs": [],
      "stateMutability": "nonpayable",
      "type": "function"
    },
    {
      "inputs": [
        {
          "internalType": "address",
          "name": "_memberAddress",
          "type": "address"
        }
      ],
      "name": "removeMember",
      "outputs": [],
      "stateMutability": "nonpayable",
      "type": "function"
    }
  ],
  "bytecode": "0x608060405234801561000f575f80fd5b50335f806101000a81548173ffffffffffffffffffffffffffffffffffffffff021916908373ffffffffffffffffffffffffffffffffffffffff160217905550610fd98061005c5f395ff3fe608060405234801561000f575f80fd5b5060043610610055575f3560e01c80630b1ca49a146100595780631b760719146100755780635daf08ca146100915780638da5cb5b146100c3578063a230c524146100e1575b5f80fd5b610073600480360381019061006e919061078a565b610111565b005b61008f600480360381019061008a9190610924565b610378565b005b6100ab60048036038101906100a69190610990565b6105ad565b6040516100ba93929190610a53565b60405180910390f35b6100cb610687565b6040516100d89190610a8f565b60405180910390f35b6100fb60048036038101906100f6919061078a565b6106aa565b6040516101089190610ac2565b60405180910390f35b5f8054906101000a900473ffffffffffffffffffffffffffffffffffffffff1673ffffffffffffffffffffffffffffffffffffffff163373ffffffffffffffffffffffffffffffffffffffff161461019e576040517f08c379a000000000000000000000000000000000000000000000000000000000815260040161019590610b4b565b60405180910390fd5b60025f8273ffffffffffffffffffffffffffffffffffffffff1673ffffffffffffffffffffffffffffffffffffffff1681526020019081526020015f205f9054906101000a900460ff16610227576040517f08c379a000000000000000000000000000000000000000000000000000000000815260040161021e90610bb3565b60405180910390fd5b5f5b600180549050811015610374578173ffffffffffffffffffffffffffffffffffffffff166001828154811061026157610260610bd1565b5b905f5260205f2090600302015f015f9054906101000a900473ffffffffffffffffffffffffffffffffffffffff1673ffffffffffffffffffffffffffffffffffffffff160361036157600181815481106102be576102bd610bd1565b5b905f5260205f2090600302015f8082015f6101000a81549073ffffffffffffffffffffffffffffffffffffffff0219169055600182015f6102ff91906106c7565b600282015f905550505f60025f8473ffffffffffffffffffffffffffffffffffffffff1673ffffffffffffffffffffffffffffffffffffffff1681526020019081526020015f205f6101000a81548160ff021916908315150217905550610374565b808061036c90610c2b565b915050610229565b5050565b5f8054906101000a900473ffffffffffffffffffffffffffffffffffffffff1673ffffffffffffffffffffffffffffffffffffffff163373ffffffffffffffffffffffffffffffffffffffff1614610405576040517f08c379a00000000000000000000000000000000000000000000000000000000081526004016103fc90610b4b565b60405180910390fd5b60025f8473ffffffffffffffffffffffffffffffffffffffff1673ffffffffffffffffffffffffffffffffffffffff1681526020019081526020015f205f9054906101000a900460ff161561048f576040517f08c379a000000000000000000000000000000000000000000000000000000000815260040161048690610cbc565b60405180910390fd5b5f60405180606001604052808573ffffffffffffffffffffffffffffffffffffffff168152602001848152602001838152509050600181908060018154018082558091505060019003905f5260205f2090600302015f909190919091505f820151815f015f6101000a81548173ffffffffffffffffffffffffffffffffffffffff021916908373ffffffffffffffffffffffffffffffffffffffff16021790555060208201518160010190816105459190610ed4565b50604082015181600201555050600160025f8673ffffffffffffffffffffffffffffffffffffffff1673ffffffffffffffffffffffffffffffffffffffff1681526020019081526020015f205f6101000a81548160ff02191690831515021790555050505050565b600181815481106105bc575f80fd5b905f5260205f2090600302015f91509050805f015f9054906101000a900473ffffffffffffffffffffffffffffffffffffffff169080600101805461060090610d07565b80601f016020809104026020016040519081016040528092919081815260200182805461062c90610d07565b80156106775780601f1061064e57610100808354040283529160200191610677565b820191905f5260205f20905b81548152906001019060200180831161065a57829003601f168201915b5050505050908060020154905083565b5f8054906101000a900473ffffffffffffffffffffffffffffffffffffffff1681565b6002602052805f5260405f205f915054906101000a900460ff1681565b5080546106d390610d07565b5f825580601f106106e45750610701565b601f0160209004905f5260205f20908101906107009190610704565b5b50565b5b8082111561071b575f815f905550600101610705565b5090565b5f604051905090565b5f80fd5b5f80fd5b5f73ffffffffffffffffffffffffffffffffffffffff82169050919050565b5f61075982610730565b9050919050565b6107698161074f565b8114610773575f80fd5b50565b5f8135905061078481610760565b92915050565b5f6020828403121561079f5761079e610728565b5b5f6107ac84828501610776565b91505092915050565b5f80fd5b5f80fd5b5f601f19601f8301169050919050565b7f4e487b71000000000000000000000000000000000000000000000000000000005f52604160045260245ffd5b610803826107bd565b810181811067ffffffffffffffff82111715610822576108216107cd565b5b80604052505050565b5f61083461071f565b905061084082826107fa565b919050565b5f67ffffffffffffffff82111561085f5761085e6107cd565b5b610868826107bd565b9050602081019050919050565b828183375f83830152505050565b5f61089561089084610845565b61082b565b9050828152602081018484840111156108b1576108b06107b9565b5b6108bc848285610875565b509392505050565b5f82601f8301126108d8576108d76107b5565b5b81356108e8848260208601610883565b91505092915050565b5f819050919050565b610903816108f1565b811461090d575f80fd5b50565b5f8135905061091e816108fa565b92915050565b5f805f6060848603121561093b5761093a610728565b5b5f61094886828701610776565b935050602084013567ffffffffffffffff8111156109695761096861072c565b5b610975868287016108c4565b925050604061098686828701610910565b9150509250925092565b5f602082840312156109a5576109a4610728565b5b5f6109b284828501610910565b91505092915050565b6109c48161074f565b82525050565b5f81519050919050565b5f82825260208201905092915050565b5f5b83811015610a015780820151818401526020810190506109e6565b5f8484015250505050565b5f610a16826109ca565b610a2081856109d4565b9350610a308185602086016109e4565b610a39816107bd565b840191505092915050565b610a4d816108f1565b82525050565b5f606082019050610a665f8301866109bb565b8181036020830152610a788185610a0c565b9050610a876040830184610a44565b949350505050565b5f602082019050610aa25f8301846109bb565b92915050565b5f8115159050919050565b610abc81610aa8565b82525050565b5f602082019050610ad55f830184610ab3565b92915050565b7f4f6e6c7920746865206f776e65722063616e2063616c6c20746869732066756e5f8201527f6374696f6e2e0000000000000000000000000000000000000000000000000000602082015250565b5f610b356026836109d4565b9150610b4082610adb565b604082019050919050565b5f6020820190508181035f830152610b6281610b29565b9050919050565b7f4d656d62657220646f6573206e6f742065786973742e000000000000000000005f82015250565b5f610b9d6016836109d4565b9150610ba882610b69565b602082019050919050565b5f6020820190508181035f830152610bca81610b91565b9050919050565b7f4e487b71000000000000000000000000000000000000000000000000000000005f52603260045260245ffd5b7f4e487b71000000000000000000000000000000000000000000000000000000005f52601160045260245ffd5b5f610c35826108f1565b91507fffffffffffffffffffffffffffffffffffffffffffffffffffffffffffffffff8203610c6757610c66610bfe565b5b600182019050919050565b7f4d656d62657220616c7265616479206578697374732e000000000000000000005f82015250565b5f610ca66016836109d4565b9150610cb182610c72565b602082019050919050565b5f6020820190508181035f830152610cd381610c9a565b9050919050565b7f4e487b71000000000000000000000000000000000000000000000000000000005f52602260045260245ffd5b5f6002820490506001821680610d1e57607f821691505b602082108103610d3157610d30610cda565b5b50919050565b5f819050815f5260205f209050919050565b5f6020601f8301049050919050565b5f82821b905092915050565b5f60088302610d937fffffffffffffffffffffffffffffffffffffffffffffffffffffffffffffffff82610d58565b610d9d8683610d58565b95508019841693508086168417925050509392505050565b5f819050919050565b5f610dd8610dd3610dce846108f1565b610db5565b6108f1565b9050919050565b5f819050919050565b610df183610dbe565b610e05610dfd82610ddf565b848454610d64565b825550505050565b5f90565b610e19610e0d565b610e24818484610de8565b505050565b5b81811015610e4757610e3c5f82610e11565b600181019050610e2a565b5050565b601f821115610e8c57610e5d81610d37565b610e6684610d49565b81016020851015610e75578190505b610e89610e8185610d49565b830182610e29565b50505b505050565b5f82821c905092915050565b5f610eac5f1984600802610e91565b1980831691505092915050565b5f610ec48383610e9d565b9150826002028217905092915050565b610edd826109ca565b67ffffffffffffffff811115610ef657610ef56107cd565b5b610f008254610d07565b610f0b828285610e4b565b5f60209050601f831160018114610f3c575f8415610f2a578287015190505b610f348582610eb9565b865550610f9b565b601f198416610f4a86610d37565b5f5b82811015610f7157848901518255600182019150602085019450602081019050610f4c565b86831015610f8e5784890151610f8a601f891682610e9d565b8355505b6001600288020188555050505b50505050505056fea26469706673582212204af1606569253a7625b2fe302e0ff50dba494bb2b6f29b3747ea5a4e019b6d3564736f6c63430008140033",
  "immutableReferences": {},
  "source": "// SPDX-License-Identifier: MIT\npragma solidity ^0.8.0;\n\ncontract Sectors {\n    struct Member {\n        address memberAddress;\n        string name;\n        uint256 ID;\n    }\n\n    address public owner;\n    Member[] public members;\n    mapping(address => bool) public isMember;\n\n    modifier onlyOwner() {\n        require(msg.sender == owner, \"Only the owner can call this function.\");\n        _;\n    }\n\n    constructor() {\n        owner = msg.sender;\n    }\n\n    function addMember(address _memberAddress, string memory _name, uint256 _ID) public onlyOwner {\n        require(!isMember[_memberAddress], \"Member already exists.\");\n\n        Member memory newMember = Member(_memberAddress, _name, _ID);\n        members.push(newMember);\n        isMember[_memberAddress] = true;\n    }\n\n    function removeMember(address _memberAddress) public onlyOwner {\n        require(isMember[_memberAddress], \"Member does not exist.\");\n\n        for (uint256 i = 0; i < members.length; i++) {\n            if (members[i].memberAddress == _memberAddress) {\n                delete members[i];\n                isMember[_memberAddress] = false;\n                break;\n            }\n        }\n    }\n}\n",
  "sourcePath": "/home/fatguy/Desktop/codes/web3/TaxRevenueTransparency/contracts/Sectors.sol",
  "compiler": {
    "name": "solc",
    "version": "0.8.20+commit.a1b79de6.Emscripten.clang"
  },
  "schemaVersion": "3.4.14",
  "updatedAt": "2023-07-17T14:26:44.677Z",
  "devdoc": {
    "kind": "dev",
    "methods": {},
    "version": 1
  },
  "userdoc": {
    "kind": "user",
    "methods": {},
    "version": 1
  }
}